:020000040800F2
:1000000028280020A501000805560008914C00088A
:10001000A155000825130008B9730008000000006E
:10002000000000000000000000000000616D0008FA
:100030001515000800000000116D00081D6F000874
:10004000BF010008BF010008BF010008BF01000890
:10005000BF010008BF010008BF010008BF01000880
:10006000BF010008BF010008BF010008BF01000870
:10007000BF010008BF0100086913000875130008DC
:10008000811300088D130008BF010008A173000848
:10009000AD730008BF010008BF010008BF010008E0
:1000A000BF010008516F0008BF010008BF01000830
:1000B0005D6F0008BF010008BF010008BF01000814
:1000C000BF010008BF010008BF010008BF01000810
:1000D000BF0100086973000885730008BF010008AC
:1000E000BF010008BF010008BF01000800F002F8CE
:1000F00000F048F80AA090E8000C82448344AAF17A
:100100000107DA4501D100F03DF8AFF2090EBAE877
:100110000F0013F0010F18BFFB1A43F0010318473B
:1001200000BE000020BE0000103A24BF78C878C18D
:10013000FAD8520724BF30C830C144BF04680C60ED
:10014000704700000023002400250026103A28BF35
:1001500078C1FBD8520728BF30C148BF0B60704739
:100160001FB500F00BFB0400002000210AF0B4F8DA
:10017000401C6060002000210AF098F8E0601FBD7C
:1001800010B510BD00F0D4FA1146FFF7E9FF07F0F3
:1001900053F900F081FD03B4FFF7F2FF03BC00F058
:1001A0004BFE00000948804709480047FEE7FEE78C
:1001B000FEE7FEE7FEE7FEE7FEE7FEE7FEE7FEE717
:1001C00004480549054A064B704700004D6F00087A
:1001D000ED000008282200202828002028240020E4
:1001E0002824002053EA020C00F069802DE9F04B2E
:1001F0004FF00006002B1FBFB3FA83F503FA05F496
:1002000024FA05F65E4012BF1643B2FA82F502FAEE
:1002100005F4C5F120051EBF22FA05FC44EA0C04D2
:10022000203556EA044C4FEA144418BF641C4FF0C2
:1002300000084FF00009904271EB030C39D30029FC
:1002400019BFB1FA81F701FA07F6B0FA80F700FAA0
:1002500007F6C7F120071EBF20FA07FC46EA0C0686
:100260002037B6FBF4FCA7EB0507103F07F01F0B88
:10027000CBF120062CFA06F60CFA0BFB44BFB34672
:100280000026202FA4BF5E464FF0000B5BEA060C51
:1002900008BF4FF0010B19EB0B0948EB0608ABFB4D
:1002A000027C06FB02CC0BFB03CCC01B71EB0C01E8
:1002B000C1E70B46024641464846BDE8F08B13B500
:1002C000084318BF4FF0FF300146AFF30080BDE890
:1002D0001C40704770B5064600F0D4F80468054627
:1002E00030460A22002100F035F92C6070BD70B54F
:1002F000064600F0C7F80468054630460A22002189
:1003000000F028F92C6070BD40EA010310B59B078E
:100310000FD1042A0DD310C808C9121F9C42F8D06F
:1003200020BA19BA884201D9012010BD4FF0FF3020
:1003300010BD1AB1D30703D0521C07E0002010BD36
:1003400010F8013B11F8014B1B1B07D110F8013BC2
:1003500011F8014B1B1B01D1921EF1D1184610BDA3
:10036000032A40F2308010F0030C00F0158011F8E1
:10037000013BBCF1020F624498BF11F801CB00F8B9
:10038000013B38BF11F8013BA2F1040298BF00F80D
:1003900001CB38BF00F8013B11F0030300F01281DC
:1003A000083AC0F0088051F8043B083A51F804CBF1
:1003B000A0E80810F5E7121D5CBF51F8043B40F8B7
:1003C000043BAFF30080D20724BF11F8013B11F8C2
:1003D00001CB48BF11F8012B24BF00F8013B00F806
:1003E00001CB48BF00F8012B70474FF000020429F1
:1003F000C0F0128010F0030C00F01B80CCF1040C54
:10040000BCF1020F18BF00F8012BA8BF20F8022B87
:10041000A1EB0C0100F00DB85FEAC17C24BF00F82D
:10042000012B00F8012B48BF00F8012B70474FF05B
:10043000000200B5134694469646203922BFA0E834
:100440000C50A0E80C50B1F12001BFF4F7AF090740
:1004500028BFA0E80C5048BF0CC05DF804EB890031
:1004600028BF40F8042B08BF704748BF20F8022B74
:1004700011F0804F18BF00F8012B7047704770478C
:100480007047000000487047A800002010B5FFF733
:10049000F9FF006810BD10B50446FFF7F3FF0460D4
:1004A00010BD00000FB40B0010B54FF000048AB06F
:1004B0000FA900910E99CC60234C7C44234A7A44C6
:1004C000CDE9064200D004236FF00042CDE90132AD
:1004D0001F4A7A446B460892024600200AF04EFFFB
:1004E0000AB010BC5DF814FBF0B507464FF0FF30C2
:1004F0001E4615460C463B4685B06A460091CDE93E
:10050000010131460020049004A8FFF7CBFF0499B5
:100510000346601825B109B1024600E022462A6070
:1005200000290ED0002B02DD0099814209D03B4604
:100530006A463146001B0094CDE9010404A8FFF788
:10054000B1FF05B0F0BD000095010000AF01000053
:100550006B0100002DE9F04791460F4680460446A6
:10056000002614F8015B2DB100F062F80068405DD0
:10057000C007F6D12B2D02D02D2D18D0641E4A466F
:100580003946204600F085F827B13968A14201D1EB
:10059000C7F800804FF0020471050BD540420028D7
:1005A00003DDFFF76FFF0460A007BDE8F08746F4A6
:1005B0008066E4E70028F8DAFFF764FF04606FF074
:1005C0000040F2E710B5203AC0F00B80B1E81850B7
:1005D000A0E81850B1E81850A0E81850203ABFF42D
:1005E000F5AF5FEA027C24BFB1E81850A0E81850CC
:1005F00044BF18C918C0BDE810405FEA827C24BF20
:1006000051F8043B40F8043B08BF7047D20728BFAD
:1006100031F8023B48BF11F8012B28BF20F8023BFC
:1006200048BF00F8012B704700487047A800002021
:1006300010B500F0A3F8001D10BD00BF9D9C000088
:1006400010B50446FFF7F4FF0068005D00F00100FC
:1006500010BD426842B1016811F8013B23B1521E3E
:10066000C0E90012184670470121C160881E70471A
:1006700042685AB1C368016843B983688B4205D0A8
:10068000491E521CC0E90012002070474FF0FF3095
:1006900070472DE9F05F824615468B4600270AF128
:1006A0000104B9460078302801D09DB113E014F858
:1006B000010B0127782803D0582801D045B10AE062
:1006C0000DB1102D07D1002714F8010B102502E001
:1006D000082500E00A250026B0460EE005FB0800CC
:1006E00005FB06F101271FFA80F801EB1046B6F56D
:1006F000803F00D3B94614F8010B294600F042F8B8
:100700000028EBDABBF1000F05D00FB1641E00E04A
:100710005446CBF80040B9F1000F06D0FFF7B2FE07
:1007200002210160C81EBDE8F09F48EA0640FAE7D2
:100730007546FFF779FFAE4605006946534620F03F
:100740000700854618B020B5FFF73AFDBDE8204008
:100750004FF000064FF000074FF000084FF0000B7D
:10076000AC46ACE8C009ACE8C009ACE8C009ACE8EC
:10077000C00921F007018D4670470000004870470E
:10078000C80000203A2800D2303820F02002412A48
:1007900001D3A2F13700884201D34FF0FF307047F8
:1007A0002DE9FF4F06468BB00878FF2806D0491C7C
:1007B0002D2805D000244FF0000908E000200CE0AF
:1007C0000124F8E709EB8903491C00EB4309087889
:1007D000FF28F7D114B1C9F1000081461078002537
:1007E0002C46AA4629462D2801D02B2804D1521C7C
:1007F0002D2813D0002082468B461078FF280FD07A
:100800004FF0000C0A21521CA5FB017804FB01816A
:1008100005FB0C11C5194BEB0104EEE70120EAE7DB
:10082000002108464FF00000BAF1000F02D000EBA3
:1008300080004008C0F38157012F01DD4FF0FF37E2
:100840000E9955EA040009EB01080BD04FF002099C
:1008500018F5FA7F16DA4FEACA70002F706008DDCB
:10086000012007E04FEACA70C6E900B00FB0BDE84A
:10087000F08F00203060FFF705FEC0F800901821CF
:10088000084616E0B8F5FA7F18DD002F02DAF748BF
:10089000784401E0F6487844D0E90010C6E9001039
:1008A00040EACA707060FFF7EDFDC0F800901421B7
:1008B00008460FB0BDE8F04F0AF0FDBC0021084625
:1008C0004FF00000B8F10001099002DAC7F1000210
:1008D00000E03A4601DAC8F1000106A800F03AFA51
:1008E00006AB93E8070003AB83E8070044F23E0041
:1008F0005BEA04010090584604D144F21E012C46E4
:100900005D460091210C0904014306D1009924049D
:1009100044EA15442D041039009104F07F4101434D
:1009200006D10099240244EA15642D020839009189
:1009300004F07041014306D10099240144EA157482
:100940002D01091F009104F04041014306D1009997
:10095000A40044EA9574AD00891E009104F00041A2
:10096000084304D100986D196441401E00904FF077
:1009700001033A466846B8F1000FCDE9014503A9E5
:1009800002DD08F0DEFE01E008F0B1FEBAF1000F72
:1009900004460D4601D084F00044002108464FF083
:1009A0000000099940F2FF77484010F00C0F07D182
:1009B00024F00040284303D0C4F30A50B84212D1B7
:1009C000FFF760FDC0F80090C4F30A50B8420AD1A6
:1009D000A8487844D0E90010C6E9001004F00041AE
:1009E0000843706042E7C6E900543FE72DE9FF4F36
:1009F0001F464FF0000A4FF0FF38454691B0D7E947
:100A00000146CDF83CA0FFF7B9FEC0680168405C24
:100A10001090B96912986D1C8847396A81468847D9
:100A20000028F6D1B9F1FF3F0AD0002E24F4D0649B
:100A300011DDB9F12B0F08D0B9F12D0F0BD102E068
:100A4000404615B013E744F48064B96912986D1CF0
:100A50008847761E8146600504A901D52D2000E057
:100A60002B20002E01F1010B0DF130088DF8100044
:100A70003FDDB9F1690F08D0B9F1490F05D0B9F1DF
:100A80006E0F02D0B9F14E0F1CD13B4601A8009564
:100A900080E85002DDE912126FF002000AF072FCE9
:100AA000C11CCED10EE0B96912986D1C88478146F1
:100AB0001398761E44F4007405600F98401C002EB5
:100AC0000F9016DDB9F1300FEDD0B9F1780F02D0EB
:100AD000B9F1580F0DD10F9801280AD13B46CDE945
:100AE0000054DDE91212001F02960AF049FCC11CF5
:100AF000A7D1109989453ED144F0800406E01399AE
:100B0000681CAAF1010A44F400740860B9696D1CFC
:100B10001298761E884730288146F0D02BE0109935
:100B2000894505D1200603D4761E44F0800418E0E0
:100B3000484609F0E8FA08B3761E0DF12302934502
:100B4000A9F1300044F4007406D20BF8010B200622
:100B500007D5AAF1010003E0200602D40AF1010042
:100B60008246A00502D51399681C0860B9691298DD
:100B70006D1C88478146002ED1DC53E0002E51DDEC
:100B8000B9F1650F02D0B9F1450F4BD1A00549D598
:100B9000B9696D1C1298761E24F440748847002EA3
:100BA00081460CDD2B2804D0B9F12D0F07D144F478
:100BB0008074B96912986D1C8847761E8146E005DD
:100BC00001D52D2100E02B2108F8011BCDF8008074
:100BD00021E0761E0DF13901884544F400740CD2F1
:100BE000A9F1300010F0FF0088F8000002D1009950
:100BF000884509D908F1010806E0E00501D51E483D
:100C000001E042F20F708246B96912986D1C884764
:100C1000814613980560002E04DD484609F073FAFA
:100C20000028D6D1F96912988847FF2053468BF8DF
:100C3000000088F8000000200A900B9004AA0CA97C
:100C40000AA8FFF7ADFDA00502D46FF00100F8E699
:100C500014F0240F12D0E0071CD13868DDE90A1225
:100C6000031D3B600068C0E9001213E0B4B6000049
:100C7000A6B600006AB50000F1D8FFFF0AA96846D1
:100C800009F0D0F9E00705D13868009A011D3960F4
:100C9000006802602846D4E610B50446AFF3008031
:100CA0002046BDE81040FFF776BA00004FF0013C47
:100CB00050F8042B51F8043B9A4221D1A2EB0C03CB
:100CC000934313EACC1317D150F8042B51F8043B8B
:100CD0009A4215D1A2EB0C03934313EACC130BD128
:100CE00050F8042B51F8043B9A4209D1A2EB0C03B3
:100CF000934313EACC13DBD04FF00000704700BFE2
:100D0000D01A01BAB1FA81F101F0180122FA01F00A
:100D1000CB40DBB2C0B2C01AC1F120012CFA01F302
:100D2000D11A914311EAC311E6D17047B2F1200301
:100D30000AD5C2F1200301FA02F120FA03F341EAD5
:100D4000030100FA02F0704700FA03F14FF00000CF
:100D5000704700002DE9F047814616468AB03548B5
:100D600078440DC88DE80D0032487844801C03ACEF
:100D70000DC884E80D0041F69B300844372190FBF4
:100D8000F1F290FBF1F5A5F1800501FB12041B3C8B
:100D900002D56442012000E00020DFF898A08046E0
:100DA0000027FA44AAF1BE0A0EE0E0070AD0324654
:100DB000684607EB470101230AEB810108F0ACFC10
:100DC0008DE8070064107F1C002CEED1194F7F4482
:100DD000AE3F19E0E80715D007EB04100DF1180A33
:100DE00090E80E008AE80E00C068F04201D1981920
:100DF00008903246012306A903A808F08DFC03AB36
:100E000083E807006D10641C002DE3D14FF001034F
:100E100032466946B8F1000F03A802D008F052FC30
:100E200001E008F079FCC9E90001C9F808200AB01E
:100E3000BDE8F087F8A7000001491820ABBEFEE727
:100E4000260002002DE9FF4F1F464FF03C0987B0F6
:100E50004FF00042DDE9141001F10108DDF858A05F
:100E600002EA405003900020059083460546044660
:100E70000490B969461E08988847AAF1010A0290B1
:100E8000BAF1000F3BDD02982E2815D01021FFF794
:100E900079FC00282EDB4FF0010B0599014317D098
:100EA000B9F1000F0BDB4A46C117FFF73FFF0543BF
:100EB0000C43A9F1040905E0012004900BE008B1FE
:100EC00045F0010501200590049820B9361D02E087
:100ED000049800B1361FB969089808F101088847DD
:100EE000BBF1000FAAF1010A0290C9D00999C1F81B
:100EF0000080C5E70298702808D0502806D0F9690C
:100F000008988847BBF1000F14D04FE000200290F2
:100F10000120BBF1000F049009D0B969089808F1CD
:100F200001088847AAF10109B9F1000F07DCF96946
:100F3000089888476FF001000BB0BDE8F08F2B28B0
:100F400004D02D280CD14FF0FF300490B9690898D7
:100F500008F101088847A9F10109B9F1000FE6DDA0
:100F6000411CE4D00A21FFF70DFC0028DFDB0299C9
:100F700008F1010801EB810100EB41000290B96921
:100F8000089888470A21FFF7FDFB099AA9F1010992
:100F9000B9F1000FC2F8008001DD0028E7DAF96935
:100FA000089888470499029800FB016655EA0400F6
:100FB00004D004F04041090002D006E0039898E014
:100FC000A40044EA9574AD00B61E04F00041080088
:100FD00002D16D196441761E159810F0240F03D0CC
:100FE0004FF00B095C4803E04FF028096FF07D00DB
:100FF0008246564507DAAAEB06018944B9F1410F4A
:1010000001DD4FF0410901200021A9F10102FFF7A4
:101010008DFE024628400B462140084301D00121A5
:1010200000E00021501E029143F1FF312840214091
:10103000084301D0012000E000200299834651EAD4
:101040000B014FD0002108464FF00000039900F437
:10105000400039B100EB80004FF4400100EBD0704C
:1010600001EA60008015012802DD4FF0FF3000E04A
:1010700013D0401C36D0029860B3BBF1000F0CD1E6
:101080004A4601200021FFF751FE28402140084335
:1010900001D0012000E00020E0B101204A460021FB
:1010A000FFF744FE034640190A4661412D1A8C4160
:1010B00011D3B9F1400F09DD159810F0240F02D0BB
:1010C000AAF1340603E0AAF1170600E0761C002519
:1010D0004FF0004406E05B1E42F1FF3220EA0305B8
:1010E00021EA0204CAF10100B04206DA1B49039862
:1010F00008430190002000900EE0039AC4F3D3212E
:10110000E80A0A43164940EA44500A433146CDE909
:101110000002684608F0ECFF159810F0240F0BD081
:101120001598C00715D13868DDE90012031D3B6032
:101130000068C0E900120CE002A8694608F072FFDE
:101140001598C00705D13868029A011D39600068FA
:1011500002604046F0E6000002FCFFFF0000F07F66
:101160000000F03F2DE9FF4F92461D4685B04FF03D
:101170000041DDE9124BDDE914727F1E01EA4B509C
:10118000414940F0FF4940EA0108002122F02000D7
:101190004928049102D04E2828D04CE03BA00126DB
:1011A00007C88DE80700A9690698641C88477F1E58
:1011B000014606D41DF8060018B121F02001814235
:1011C0000BD0E96906988847032E34D0082E32D018
:1011D0006FF0010009B0BDE8F08F761C032E01D03E
:1011E000082EE0D1601CCAF80000DCE7A969069867
:1011F000641C88477F1E2AD420F02000412826D175
:10120000A9690698641C88477F1E20D420F020001E
:101210004E281CD1A9690698641C88477F1E48F493
:10122000002849F48009CAF8004001D4282806D0D3
:10123000E969069888475FEACB7012D022E0A96975
:101240000698641C88477F1E01D4002803DAE969E8
:1012500006988847BCE72928F1D1641CCAF80040E9
:10126000E9E71BF0240F07D028680499031D2B60C1
:101270000068C0E9001805E02868021D2A600068BF
:10128000C0F800902046A5E70000F07F494E46498F
:101290004E4954590000000070470000B0B5482086
:1012A00000F006F900F040F840F60450C2F20000E9
:1012B00002F050FD40F69450C2F20000016840F286
:1012C000F014CA68C2F2000442F01002CA6021465B
:1012D000152203F027FC002040F28825C4F2484084
:1012E000C2F200050021A063D5F81805CCF24841F0
:1012F000E16309F073FE6064284603F049FF40F69D
:101300004C54C2F2000440F63021C2F200012046E3
:101310004FF4807203F006FC2068C16841F01001B0
:10132000C160B0BDFEE7000010B58AB00E2040F6E7
:101330003034099001200021C2F200040890CDE968
:101340000610CDE90011CDE90211CDE9041169467D
:10135000204600F0FFFF204601F03CFB2046022122
:1013600000F0E0FF0AB010BD40F69C30C2F2000071
:1013700001F0EABB40F65830C2F2000001F0E4BBD5
:1013800040F6E030C2F2000001F0DEBB40F624403F
:10139000C2F2000001F0D8BB70B582B041F2040384
:1013A000CEF20003196840F260260091C2F20006F6
:1013B000009902683468009D0560186801900198E2
:1013C0003369984202D2F0680130F060881A09F05F
:1013D0001DFE0546204609F019FE0146284609F083
:1013E0003BFD0199316102B070BD00002DE9F0476D
:1013F00082B041F20400CEF20000016840F2602A9F
:1014000000910068C2F2000A01900199DAE9030232
:10141000002791423CBF0130CAF80C00019900231B
:10142000CAF81010009E4FF0FF31E0FB0167DAE9C7
:101430000049DAF80880304639462246CAE906678C
:10144000FEF7D0FE0546A0FB040201FB0421341A7E
:1014500067EB0106204631464A460023CAF8205071
:10146000FEF7C0FE87B2AAF8240007FB09F0201A95
:1014700066F1000142460023FEF7B4FE04464FF435
:101480007A7005FB0070AAF8264009F0BFFD0546FA
:10149000A0B209F0BBFD41F26F21C3F6832109F030
:1014A000C9FD294609F076FC02B0BDE8F0870000CE
:1014B00010B54EF6FC5CCEF2000CDCF8002044F2D5
:1014C0004023C0F20F0342F08072584344F6D353D6
:1014D000CCF8002041F20002C1F26203CEF2000219
:1014E0004FF0000CA0FB033EC2F804C04DF6836130
:1014F0001368C4F21B31A0FB011443F00101116019
:1015000040F26021C2F200014FEA9E12A30C81E872
:101510000D1010BD70470000EFF3108072B600BFD1
:10152000FEE700002DE9F04FA7B0002900F0F28699
:1015300007AE0C46054606F1010806F1020A4FF017
:10154000000B0FF6D4474FF0000900210AE000BF5E
:101550007E299ABF70540131002109F10109A1458A
:1015600000F0D88615F809000D28F6D00A28EFD12A
:10157000002070549DF81C0000212428EDD1404625
:1015800039460522FEF7C0FEB0B340460FF6904143
:101590000522FEF7B9FE002840F0B6830022242180
:1015A000504600BF2C2910F8011C08BF0132002949
:1015B00000F08080052A00F27D802C29017808BF88
:1015C0000132002977D0052A75D82C29417808BF27
:1015D0000132002900F09E80052A00F29B802C2910
:1015E000817808BF013200F1040009B1062AD9D37D
:1015F0000238062A62D087E300222421504600BF29
:101600002C2910F8011C08BF0132E9B1012A1BD8AE
:101610002C29017808BF0132B9B1012A15D82C292B
:10162000417808BF0132002940D0012A3ED82C2938
:10163000817808BF013200F1040009B1022ADFD32A
:101640000238022A04D0A9E00138022A40F0A6801C
:10165000002219B32A2921D02C291FD081184B78B8
:10166000002B5BD02A2B59D02C2B57D08B78002BFA
:1016700000F08E802A2B00F08B802C2B00F08880CD
:10168000CB78002B00F092802A2B00F08F802C2B3F
:1016900000F08C80097904320029DBD1811881F8AF
:1016A00000B0007841283FD078E000BF0130022A26
:1016B000CED073E00138062A40F02683002231B3F1
:1016C0002A2924D02C2922D081184B78002B00F015
:1016D000A9802A2B00F0A6802C2B00F0A3808B7809
:1016E000002B00F0A1802A2B00F09E802C2B00F014
:1016F0009B80CB78002B00F099802A2B00F09680FD
:101700002C2B00F09380097904320029D8D10244AF
:101710008DE000BF0130062AD0D0F5E2013181F81A
:1017200000B00078412839D140F60820C2F200000C
:10173000012101709DF81CC0BCF1000F00F0E48293
:101740005046614610F8012C002A18BF2C2935D0CC
:10175000A2F12C030178B3FA83F300294FEA531363
:1017600018BF2C2A30D04778002F18BF2C2900F042
:10177000A58081780430002918BF2C2FE2D1A7F171
:101780002C02B2FA82F25309023803BB9FE000BF79
:10179000023181F800B000784128C5D040F6082019
:1017A0000021C2F200000170D7E600BF033181F8CA
:1017B00000B000784128B7D0F0E700BF2C39B1FA6B
:1017C00081F14B0901381146002B00F08080002385
:1017D00031B32A2924D02C2922D0C21851780029CB
:1017E00000F00E812A2900F00B812C2900F00881DD
:1017F0009178002900F03C812A2900F039812C29B8
:1018000000F03681D178002900F034812A2900F0D7
:1018100031812C2900F02E81117904330029D8D18F
:10182000C11828E14A1C02E08A1C00E0CA1C002101
:1018300011700278002A3FF490AEFEF74BFD0028AD
:1018400000F062829DF81C1081B3002350460A46C6
:101850002C2A10F8012C08BF0133002A00F0D28096
:10186000062B00F2CF802C2A027808BF0133002A11
:1018700000F0C980062B00F2C6802C2A427808BFEF
:101880000133002A00F0EC80062B00F2E9802C2ABC
:10189000827808BF013300F104000AB1072BD7D3C7
:1018A0000238072B00F0B180DDE000BF40F60821D0
:1018B0000020C2F2000181F820007CE32C39B1FA4B
:1018C00081F14B0901303946002B7FF480AF0020B5
:1018D000BCF1000FCDF8108000F0D7800023D34674
:1018E000624600BF2C2A1BF8012C08BF01330AB343
:1018F000022B1FD82C2A9BF8002008BF0133DAB135
:10190000022B19D82C2A9BF8012008BF0133002A8A
:1019100040D0022B3ED82C2A9BF8022008BF01336E
:101920000BF1040B0AB1032BDCD3ABF1020B032B3D
:1019300004D033E0ABF1010B032B2FD100213AB3DC
:101940002A2A25D02C2A23D00BEB01025378002B16
:1019500000F00A812A2B00F007812C2B00F0048173
:101960009378002B00F002812A2B00F0FF802C2BB3
:1019700000F0FC80D378002B00F0FA802A2B00F0D6
:10198000F7802C2B00F0F48012790431002AD7D193
:101990005944EEE00BF1010B032BCFD04FF0000BBD
:1019A000BCF1000F00F0ED800023D046624600BF7E
:1019B0002C2A18F8012C08BF0133002A6CD0032B05
:1019C0006AD82C2A98F8002008BF0133002A69D071
:1019D000032B67D82C2A98F8012008BF0133002A6E
:1019E0005ED0032B5CD82C2A98F8022008BF013364
:1019F00008F104080AB1042BDAD3A8F1020851E077
:101A0000511C38E00138072B2DD1002132B32A2A8E
:101A100024D02C2A22D042185378002B00F00882C0
:101A20002A2B00F005822C2B00F002829378002BE9
:101A300000F032822A2B00F02F822C2B00F02C8217
:101A4000D378002B00F02A822A2B00F027822C2B3F
:101A500000F0248212790431002AD8D101441EE218
:101A60000130072BD1D00020002940F01E8265E212
:101A7000911C00E0D11C81F800B09DF81CC0BCF1A5
:101A8000000FCDF810807FF429AF002103910021D1
:101A900005914FF0000B78E0A8F1010802E000BFCB
:101AA00008F10108042B2BD100213AB32A2A25D0B2
:101AB0002C2A23D008EB01025378002B00F0488237
:101AC0002A2B00F045822C2B00F042829378002BC9
:101AD00000F040822A2B00F03D822C2B00F03A824D
:101AE000D378002B00F038822A2B00F035822C2B83
:101AF00000F0328212790431002AD7D141442CE21D
:101B00004FF00008BCF1000F00F02F820023564672
:101B1000624600BF2C2A16F8012C08BF0133002AA8
:101B200000F08881042B00F285812C2A327808BFCE
:101B30000133002A00F08181042B00F27E812C2ADF
:101B4000727808BF0133002A00F07681042B00F27E
:101B500073812C2AB27808BF013306F104060AB15A
:101B6000052BD7D3023E68E1511C02E0911C00E036
:101B7000D11C00220A709DF81CC0BCF1000F7FF43C
:101B800013AF00210391002105914FF000080026BA
:101B90004FF0000E00270028CDF818E046D001785D
:101BA000002943D0019608F0B5FA48F60003002258
:101BB000C4F2C3030646CDF808A08A4608F090FC9C
:101BC00008F024FE40F60821C2F2000148703046B9
:101BD0005146DDF808A008F019FE48F6AD31C6F60A
:101BE000DB0180FB0112110B01EBD27142F210728A
:101BF00001FB120148F21F52C5F2EB1280FB0223D7
:101C000009B241F27B425143CA0C02EBD1715A092D
:101C100002EBD3726423DDF818E0019E02FB13008F
:101C200040F60822C2F200029170D0707FB338787B
:101C300068B33846FEF75BFB48F6AD31C6F6DB010C
:101C400080FB011248F21F51C5F2EB1180FB01131A
:101C5000111301EBD27142F2107201FB120240F635
:101C60000827C2F20007DDF818E0397111B241F21D
:101C70007B425143CA0C02EBD1715A0902EBD37279
:101C8000642302FB1300797100F5FA60F88040F6D6
:101C90000827BBF1000FC2F2000718BFB8F1000F10
:101CA00036D10598002818BF002E7BD1039880B14B
:101CB000017871B108F02EFA4AF2CA134FF040428F
:101CC000C3F6FD7308F038FE08F01CFBDDF818E0E1
:101CD000B861DDF81080BEF1000F07AE4FF0000BC9
:101CE0000FF2386710D09EF8000068B1704608F017
:101CF00011FA08F007FB40F60821C2F20001C861A2
:101D00000021FFF72ABC00BF0021FFF726BC00BF5F
:101D10009BF800000028C4D05846019608F0FAF954
:101D200000230022C4F25903CDF808A082460F46D2
:101D300008F0D6FB08F06AFD06466420704308F000
:101D400094FD02460B465046394608F035FF0746DB
:101D500030468A4608F089FD002306468B46384601
:101D600040F608275146DDF808A00022C4F24E03D1
:101D7000C2F2000708F0B4FB32465B4608F0F4FA02
:101D8000DDF818E0019EC7E9020198F80000532829
:101D90007FF487AFD7E9020181F00041C7E9020172
:101DA0007FE700BF307800283FF480AF304608F06E
:101DB000B1F900230022C4F2590380460F4608F00F
:101DC0008FFB08F023FD06466420704308F04DFDAC
:101DD00002460B464046394608F0EEFE07463046BE
:101DE000884608F042FD00230646D3468A46384618
:101DF00040F6082741460022C4F24E03C2F2000713
:101E000008F06EFB32465346DA4608F0ADFADDF8CC
:101E100018E0C7E904010598007857287FF446AF19
:101E2000D7E9040181F00041C7E904013EE700BFA2
:101E3000511C34E0013E00E00136052B2AD100217F
:101E400032B32A2A24D02C2A22D072185378002B9D
:101E500000F0B6802A2B00F0B3802C2B00F0B0806D
:101E60009378002B00F0AE802A2B00F0AB802C2B57
:101E700000F0A880D378002B00F0A6802A2B00F079
:101E8000A3802C2B00F0A08012790431002AD8D135
:101E900031449AE000269CE0911C00E0D11C81F8BE
:101EA00000B09DF81C10002948D00022574600BF02
:101EB0002C2917F8011C08BF0132D9B1082A19D8FA
:101EC0002C29397808BF0132B9B1082A15D82C2934
:101ED000797808BF013279B1082A0DD82C29B97850
:101EE00008BF013207F1040709B1092AE0D3023F14
:101EF00003E000BF013F00E00137092A1ED10022A4
:101F0000D1B12A2918D02C2916D0B9184B788BB307
:101F10002A2B2FD02C2B2DD08B786BB32A2B2BD0A8
:101F20002C2B29D0CB784BB32A2B27D02C2B25D088
:101F3000097904320029E4D1B91820E0002710B350
:101F4000017800290CBF0020FEF7C4F91CE000BF97
:101F5000511C02E0911C00E0D11C00220A709DF887
:101F60001CC0BCF1000F7FF4D1AD00210391002112
:101F700005910CE6013102E0023100E0033181F805
:101F800000B00028DCD1002040F60821C2F2000198
:101F900081F8200047B1387830B1384608F0BAF8F7
:101FA00008F0B0F901E000BF002040F608210FF270
:101FB0006C37C2F2000148620021FFF7CEBA00BFC1
:101FC000511C02E0911C00E0D11C00220A709DF817
:101FD0001CC0BCF1000F25D000235746624600BF4D
:101FE0002C2A17F8012C08BF01330AB3052B1FD880
:101FF0002C2A3A7808BF0133EAB1052B1BD82C2ACA
:102000007A7808BF0133AAB1052B13D82C2ABA78E5
:1020100008BF013307F104070AB1062BE0D3023FE2
:1020200009E000BF0021039100210591B0E500BF48
:10203000013F00E00137062B1ED10021D2B12A2A30
:1020400018D02C2A16D07A185378BBB12A2B15D069
:102050002C2B13D093789BB12A2B11D02C2B0FD083
:10206000D3787BB12A2B0DD02C2B0BD012790431D5
:10207000002AE4D1394406E0002708E0511C02E0C0
:10208000911C00E0D11C00220A709DF81CC0BCF11C
:10209000000F059728D00023D64662462C2A1EF84A
:1020A000012C08BF01331AB3062B21D82C2A9EF825
:1020B000002008BF01330AB3062B1FD82C2A9EF834
:1020C000012008BF0133BAB1062B15D82C2A9EF87F
:1020D000022008BF01330EF1040E0AB1072BDDD335
:1020E000AEF1020E0AE000BF0021039150E500BFEF
:1020F000AEF1010E02E000BF0EF1010E072B1FD161
:102100000021DAB12A2A19D02C2A17D00EEB0102AD
:102110005378CBB12A2B17D02C2B15D09378ABB199
:102120002A2B13D02C2B11D0D3788BB12A2B0FD084
:102130002C2B0DD012790431002AE3D1714408E030
:102140004FF0000E09E000BF511C02E0911C00E0BE
:10215000D11C00220A709DF81CC0BCF1000FCDF804
:102160000CE03FF415AD0023D64662462C2A1EF83B
:10217000012C08BF0133FAB1072B1DD82C2A9EF879
:10218000002008BF0133EAB1072B1BD82C2A9EF888
:10219000012008BF01339AB1072B11D82C2A9EF8D1
:1021A000022008BF01330EF1040E0AB1082BDDD363
:1021B000AEF1020E06E000BFAEF1010E02E000BF7C
:1021C0000EF1010E082B1FD10021DAB12A2A19D0F5
:1021D0002C2A17D00EEB01025378CBB12A2B17D043
:1021E0002C2B15D09378ABB12A2B13D02C2B11D0DC
:1021F000D378CBB12A2B17D02C2B15D012790431E0
:10220000002AE3D1714410E04FF0000E11E000BF4E
:10221000511C0AE0911C08E04750524D4300000059
:102220004750474741000000D11C00220A709DF82A
:102230001CC0BCF1000F3FF4ADAC00225746BCF10E
:102240002C0F17F801CC08BF0132BCF1000F27D0CA
:10225000082A25D8BCF12C0F97F800C008BF01321E
:10226000BCF1000F1FD0082A1DD8BCF12C0F97F825
:1022700001C008BF0132BCF1000F13D0082A11D8E9
:10228000BCF12C0F97F802C008BF0132BCF1000F5F
:1022900007F1040701D0092AD1D3023F03E000BFB0
:1022A000013F00E00137092A7FF474AC0022BCF141
:1022B000000F1ED0BCF12A0F1BD0BCF12C0F18D080
:1022C000B9184B78C3B12A2B16D02C2B14D08B788D
:1022D000A3B12A2B12D02C2B10D0CB7883B12A2B70
:1022E0000ED02C2B0CD091F804C00432BCF1000F9E
:1022F000E0D1B91805E000BF013102E0023100E091
:10230000033100220A700028CDF818E07FF447ACB2
:10231000FFF78CBC27B0BDE8F08F00BF4750524D8F
:102320004300000090F82020013A012A08D80068F4
:1023300000F114020020136819431160704700BFB8
:1023400000F1240201204FF4802113681943116029
:1023500070470000B0B5026890F82030013B012BB7
:1023600028D8D2F80002012340F00100C2F8000290
:10237000D1F814E0CC690EF01F0003FA00F0D2F897
:102380001C326FEA000C8343012CC2F81C3217D0B8
:102390006CBBD2F80C3203EA0C03C2F80C32CB68E7
:1023A0008C8844EA034302EBCE04C4F840320B4667
:1023B00015E000BF416A41F4802141620120B0BDB7
:1023C000D2F80C320343C2F80C320B688C8844EA12
:1023D000034302EBCE04C4F8403201F10C038C68D5
:1023E0001B8843EA044302EBCE04C4F84432D2F81B
:1023F00004328D6943EA0004D1F810E0096A002D27
:1024000008BF03EA0C04C2F80442D2F81432BEF149
:10241000000F43EA000408BF03EA0C040129C2F8D4
:10242000144204D1D2F81C120843C2F81C02D2F89C
:10243000000220F00100C2F800020020B0BD000040
:102440007047000010B590F82040013C012C7BD86B
:10245000D0F800C0002900F08180DCF81040A4070B
:1024600000F081800CEB011CDCF8B0410CF5D87E4B
:1024700014F004049460DCF8B04119BFE40854601F
:10248000640D1460DEF800400CF5DA7E04F00204FE
:10249000D460DCF8B44124075ABFDEF8004004F0F1
:1024A0000F0408241461DEF800400029C4F3072457
:1024B0009461DEF800404FEA14445461DCF8B8211E
:1024C0001A70026802EB0112D2F8B8214FEA122208
:1024D0005A70026802EB0112D2F8B8214FEA124298
:1024E0009A70026802EB0112D2F8B8214FEA126228
:1024F000DA70026802EB0112D2F8BC211A7102688C
:1025000002EB0112D2F8BC214FEA12225A71026882
:1025100002EB0112D2F8BC214FEA12429A71026812
:1025200002EB0112D2F8BC214FEA1262DA710068A4
:1025300014BF00F1100100F10C01002020220B68F3
:102540001A430A6010BD00BF00F1240101204FF4BE
:1025500080220B681A430A6010BD00BFDCF80C40F3
:10256000A4077FF47FAF00F1240101204FF4001293
:102570000B681A430A6010BD2DE9F04F81B0044684
:1025800000684669D0F804908768D0F80CB0D0F89D
:1025900010A0D0F81880F10704D1002530071DD411
:1025A00024E000BFF90710D00121BA07816009D4E7
:1025B000780700F1AF80380700F1B680204600F0C0
:1025C00037FA02E0204600F035FA0025F80500F160
:1025D0008780F80300F1B180300707D51BF01000A9
:1025E00004D0206845F400751021C160700708D53B
:1025F0001BF0080005D020680821C160204600F0CB
:10260000B3F9B00706D52068C068800702D020461D
:1026100000F0ACF9700607D51AF0100004D020685D
:1026200045F4806510210161B00608D51AF0080054
:1026300005D0206808210161204600F0C5F9F006A8
:1026400006D520680069800702D0204600F0BEF958
:10265000B00308D519F0100005D0206810214160A2
:10266000204600F0B5F9F00308D519F0080005D0B0
:10267000206808214160204600F0E6F9300440F16E
:102680009B805FEA497040F1948006F4807008EA0C
:10269000102028435FEA8871014648BF41F00201DB
:1026A000B20558BF01465FEA48700D4648BF45F085
:1026B0000405700558BF0D46300540F17A8018F0CA
:1026C000700000F076801038000905286CD8DFE82B
:1026D00000F003595D61656945F0080564E000BFDD
:1026E00020684FF48071BA0581600BD4780515D449
:1026F00038051DD4204600F09FF9F8037FF56CAF34
:102700001BE000BF204600F099F9F8037FF564AFA5
:1027100013E000BF4FF4006558E700BF05F5005512
:10272000F8037FF559AF08E04FF480554EE700BF3E
:1027300005F58045F8037FF54FAF20684FF48031F1
:10274000BA0381600AD4780310D4380314D4204625
:1027500000F076F930073FF541AF47E7204600F03B
:1027600071F930073FF53AAF40E700BF05F5004586
:1027700030073FF533AF39E705F5803530073FF5D2
:102780002DAF33E745F010050EE000BF45F0200502
:102790000AE000BF45F0400506E000BF45F08005B7
:1027A00002E000BF45F480752068816921F0700166
:1027B000816120680421416055B1606A40EA0501E9
:1027C0002046616201B0BDE8F04FFFF739BE00BF9F
:1027D00001B0BDE8F08F0000B0B5C8B1044690F874
:1027E000200010B9204600F071F82068016841F01F
:1027F0000101016000F03CFC054600BF2068416813
:10280000C90707D100F034FC401B0B28F6D312E0B7
:102810000120B0BD016821F00201016000F028FC38
:10282000054600BF2068416889070DD500F020FCEF
:10283000401B0B28F6D3606A052140F4003060622B
:10284000012084F82010B0BD217E0268012922F009
:10285000800208BF80320260617E0268012922F096
:10286000400208BF40320260A17E0268012922F0C6
:10287000200208BF20320260E17E0268012922F0B6
:10288000100218BF10320260217F0268012922F075
:10289000080208BF08320260617F0268012922F045
:1028A000040208BF04320260D4E901C2D4E903354E
:1028B00061691A432A431143ACF101021143C1611A
:1028C00000200121606284F82010B0BDB0B586B050
:1028D00040F60004C4F201040068A4F5244200217B
:1028E0009042059102D006B0B0BD00BF41F2180081
:1028F000C4F20200426802AD42F0007242604268D7
:1029000002F000720192019A026842F00402026031
:10291000006800F00400019001984FF40060CDE9D8
:102920000201012004902046294600F083FA4FF46A
:1029300080500290022003900320059020462946F3
:1029400000F078FA13200521002200F0E3FD1320A7
:1029500000F0D0FD14200521002200F0DBFD142042
:1029600000F0C8FD06B0B0BD7047000010B58AB0D9
:1029700003AA01AB00210446FFF764FD206846F27C
:102980000041C4F20001884202D00AB010BD00BF6D
:10299000039940F20520814240F28820C2F20000F3
:1029A00006D040F206229142EFD100F5C86401E062
:1029B00000F5A06401A9204602F0F4FD204602F0D3
:1029C00005FE0AB010BD000070470000704700000F
:1029D00070470000B0B5044690F8200001281DD1D2
:1029E000022084F820002068016821F001010160C4
:1029F00000F03EFB054600BF20684068C00713D0CA
:102A000000F036FB401B0B28F6D3606A40F4003020
:102A10006062052084F820000120B0BD606A40F4A7
:102A2000002060620120B0BD00206062B0BD0000E7
:102A300070470000704700007047000070470000BA
:102A4000704700007047000070470000014690F892
:102A50002100022816D10868D1E90FC3026822F0CC
:102A60000E020260026822F001020260012000FAF8
:102A700003F2CCF8042081F821000020002281F824
:102A800020207047042088630120002281F8202044
:102A90007047000080B590F82110022924D1026807
:102AA000116821F00E0111602F211368C4F2020198
:102AB0008A4240F20401C4F2020123F001031360D0
:102AC00016DD3023C4F202039A421DD04423C4F21F
:102AD00002039A421CD05823C4F202039A421DD129
:102AE0004FF4803322E000BF04218163012080BDC8
:102AF0000823C4F202039A420ED01C23C4F202033C
:102B00009A420BD1102311E04FF480730EE000BF06
:102B10004FF480530AE000BF012307E001F1680C85
:102B20004FF08073624508BF4FF480130B600121A2
:102B300080F82110426B002180F820100AB19047E4
:102B40000021084680BD000010B5D0E90FCE016815
:102B5000DCF800300A6823FA0EF35C072AD512F07D
:102B6000040427D00A68920603D40A6822F00402FB
:102B70000A602F22C4F20202914240F20402C4F21F
:102B800002025BDD3023C4F20203994272D0442377
:102B9000C4F20203994273D05823C4F2020399424B
:102BA00040F07A804FF480231360C16A002940F01E
:102BB00098806FE09C0727D512F0020424D00A68A1
:102BC000920606D40A6822F00A020A60012280F8FE
:102BD00021202F22C4F20202914240F20402C4F2E8
:102BE00002023BDD3023C4F20203994260D0442349
:102BF000C4F2020399425FD05823C4F202039942FF
:102C000060D14FF4003365E01B0743D512F0080292
:102C100008BF10BD0A6822F00E020A60012101FA05
:102C20000EF2CCF80420816380F82110016B0022A1
:102C3000002980F8202054D12CE000BF0823C4F2E2
:102C40000203994222D01C23C4F20203994223D1E9
:102C500040231360C16A002943D11BE00823C4F25A
:102C6000020399422CD01C23C4F20203994229D1B9
:102C700020232FE04FF480631360C16A89BB09E011
:102C80004FF480431360C16A59BB03E0042313600F
:102C9000C16A31BB10BD00BF02F168044FF0806310
:102CA000A14208BF4FF480031360C16AC9B9F1E7BC
:102CB0004FF400730EE000BF4FF400530AE000BF72
:102CC000022307E002F168044FF00073A14208BF3D
:102CD0004FF400131360816A0022002980F820203D
:102CE000D8D0BDE810400847014600284FF0010049
:102CF00008BF70472DE9F043D1F800C04FF6F873D4
:102D0000CBF6FD734CF6CD426344CCF6CC42A3FB2C
:102D100002236FF0030707EA93030027C4F20207B8
:102D200001F10C09C1E90F730223D1E9012E99E8E1
:102D30007002D1F81C8081F82130DCF8003043F6B5
:102D4000F077BB431A4342EA0E0222432A4332433E
:102D500042EA090242EA0802CCF8002000228A6313
:102D600081F8210081F820200020BDE8F043704761
:102D7000F0B590F820C0BCF1010F32D04FF0010E39
:102D800080F820E090F821C0BCF1010F26D14FF06F
:102D9000020C80F821C04FF0000CC0F838C0D0E918
:102DA00000C4C56AC66BDCF80070102C27F0010760
:102DB000CCF80070006C0EFA00F070600846CCF899
:102DC000043004BF10460A46CCF80800CCF80C20AA
:102DD000DCF8000045B140F00E000DE0002180F865
:102DE00020100220F0BD00BF20F00400CCF800004D
:102DF000DCF8000040F00A00CCF80000DCF800002D
:102E000040F00100CCF800000020F0BDB0B5044651
:102E100000F02EF9054640F20000C2F200000078F2
:102E2000611C18BF044400BF00F022F9401BA042FF
:102E3000FAD3B0BD2DE9F04F82B041F20042C4F2A6
:102E400001020E680423904208BF0323002E009362
:102E500000F0F68040F2004C4FF6FF7E0022C4F2F4
:102E6000010C0124C1F2100E4FF0000A4FF00009CE
:102E700047E000BF012502F00C040F27A7402BEA12
:102E8000070705FA04F43C4343F82640D1F804B0A0
:102E900040F20C455FEACB23DCF8083054BF23EA4C
:102EA000080343EA0803C4F20105CCF808302B6894
:102EB0005FEA8B2454BF23EA080343EA08032B602C
:102EC0005FEA8B34DCF8043054BF23EA080343EA9A
:102ED00008035FEACB34CCF80430DCF800304FF064
:102EE000010454BF23EA080343EA0803CCF8003086
:102EF0000E680AF1010A36FA0AF302F1040200F040
:102F00009F8004FA0AF816EA080FF1D04B6873455F
:102F100012DC122B56D8DFE803F0350B4549555526
:102F200055555555555555555555554D510000BF9D
:102F3000D1F80C9046E000BF4FF6FF75C1F22105B5
:102F4000AB420FDC0025C1F21105AB421AD00025BF
:102F5000C1F21205AB4215D00025C1F22105AB42EA
:102F600010D02FE00025C1F22205AB420AD0002587
:102F7000C1F23105AB4205D00025C1F23205AB42AA
:102F800020D100BF8B684BB1012B14BFC0F8148057
:102F9000C0F810804FF0080914E000BF4FF004099A
:102FA00010E000BFCB6803F108090BE04FF0000907
:102FB00008E000BFCB6803F1040903E0CB6803F12C
:102FC0000C0900BF13460546BAF1080F24BF203B89
:102FD00004352E680F279F40BE4309FA03F333439D
:102FE0002B60CB79DB067FF583AF41F21804C4F286
:102FF000020423684FEA9A0643F001032360236822
:1030000040F6000403F001030193019BACF57E73CD
:1030100053F826B0C4F20104A0420FD040F6004499
:10302000C4F20104A0423FF425AF41F20004C4F20F
:103030000104009DA04208BF02251CE700251AE7F5
:1030400002B0BDE8F08F00008068084018BF012082
:1030500070470000C26802EA0103914341EA03415C
:1030600001617047002A08BF090401617047000030
:1030700041F62830C2F200000068704770B5B8B35E
:10308000044690F83D0028B9002084F83C00204612
:1030900000F05CF9242084F83D002068016821F0EC
:1030A00001010160016841F400410160016821F4FF
:1030B0000041016000F06CFB48F28041C0F21E014B
:1030C00040F60013D4F804E088424FF00001C0F24B
:1030D0003D0348F2A16C4FF0000238BF0121984235
:1030E000C0F2010C38BF0122E64538BF0A460AB1DA
:1030F000012070BD4DF68361C4F21B31A0FB0112AB
:103100002168950C4B684FF4967623F03F0343EA11
:103110009243754344F6D3564B60C1F262060B6A84
:10312000A5FB0656B50923F03F03E64538BF950CCD
:103130006A1C1A430A62CA6948F2A0664CF6FF7319
:10314000C0F20106B64522EA03020BD801384FEA65
:103150004E03B0FBF3F001306FF31F30042898BF2B
:1031600004201EE0A368013863B119230EFB03F3AA
:10317000B0FBF3F001306FF31F3078B100F5804001
:1031800008E000BF0EEB4E03B0FBF3F001306FF32D
:103190001F3028B100F5004003E000BF012000E02F
:1031A00001201043C8610868D4E9072320F0C0005B
:1031B000104318430860886848F2FF3204F10C0697
:1031C00090434CCE18431043A5698860C86820F02E
:1031D000FF0030432843C860086840F001000860E1
:1031E00000202021206484F83D10206384F83E00F4
:1031F00070BD00002DE9F04383B0994616460F4696
:103200000446FFF735FF94F83D10202920D10546EC
:10321000206800BF8169890716D5FFF729FF411B88
:1032200020681A29F6D381698907F3D50020202167
:10323000206384F83D1084F83E00216C41F02001A9
:10324000216484F83C0003E094F83C10012903D188
:10325000022003B0BDE8F083012284F83C2003681B
:10326000DDE90B180A9ADB0703D1036843F0010379
:103270000360036823F400630360212084F83D00A9
:10328000402084F83E000020206462626185608DE9
:10329000394620850020CFF6FF70E0622046324696
:1032A0004B46CDF80080019501F0F4FC20B10120DF
:1032B00003B0BDE8F08300BF208D98B92046414699
:1032C0002A4601F04BFD88B3206C0428EFD120681A
:1032D000016841F400710160012003B0BDE8F08392
:1032E0000004EBD0204641462A4601F0F1FE0028BA
:1032F000EAD1616A2268084610F8013B1361238D08
:103300006062581E2085678D013F678557697F077A
:10331000E6D50704E4D048781061881C6062981EE6
:103320002085618D01396185DAE700BF2068016879
:1033300041F400710160202084F83D00002084F8F1
:103340003E0084F83C0003B0BDE8F08310B586B0C1
:1033500045F200410068C4F2000100228842049254
:1033600002D006B010BD00BF41F21804C4F202043E
:10337000206840F008002060206800F008000190FC
:103380000198C0200290122003900320059001F5BF
:10339000384002A9FFF74EFD606840F400106060FD
:1033A000606800F400100190019806B010BD0000A4
:1033B00040F2000041F62831C2F20000C2F20001E2
:1033C00000780A68104408607047000080B542F237
:1033D0000000C4F20200016841F010010160032006
:1033E00000F0C4F80F2000F005F800F05BF80020B2
:1033F00080BD0000B0B586B041F21801C4F20201F0
:103400000A68044642F400620A60096801A801F4EF
:10341000006101910199694600F098F900F0CCF93A
:103420004DF68361C4F21B31A0FB01014FF0FF3068
:1034300000EB914140F6BC4042F60042C2F200006F
:10344000C4F2010240F2E7330025C0E90021C0E9DF
:1034500002530561856100F0DFFB054610B1284687
:1034600006B0B0BD40F6BC40C2F2000000F072FCF5
:1034700005460028F3D1192000F03CF80F2C0DD898
:10348000192021460022002500F044F840F20400F3
:10349000C2F200000460284606B0B0BD01252846EF
:1034A00006B0B0BD80B582B041F21800C4F202008F
:1034B0000168002241F001010160016801F0010191
:1034C00001910199416841F08051416040680F21AC
:1034D00000F08050009000986FF0010000F01AF8A2
:1034E0000420C4F201000168022262F31A61016043
:1034F00002B080BD002848BF704700F01F010122C4
:1035000002FA01F14EF200124009CEF2000242F836
:103510002010704710B54EF60C5CCEF2000CDCF8B3
:103520000030C3F3022E8EF00704042C28BF0424BD
:10353000BEF103034FF0FF3E0EFA04F438BF002340
:10354000A14399400EFA03F39A43114300F00F028E
:10355000043A624409010C3200F16043B0F1FF3FCC
:10356000C8BF03F56442117010BD00004EF60C5147
:10357000CEF200010A684FF6FF031A4060F30A22F8
:1035800042F0806040F0FD70086070472DE9F04324
:1035900081B0002800F0858042F20008C4F20208E1
:1035A0000446D8F800000D4600F0070088420CD20F
:1035B000D8F8000020F007002843C8F80000D8F829
:1035C000000000F00700A8426BD1206841F2040916
:1035D0008107C4F2020917D5410705D5D9F80010B3
:1035E00041F4E061C9F80010010705D5D9F80010D1
:1035F00041F46051C9F80010D9F80010A26821F018
:10360000F0011143C9F80010C00741D1D8F80000FB
:1036100000F00700A8420CD9D8F8000020F00700FD
:103620002843C8F80000D8F8000000F00700A842BE
:1036300037D12068410707D5D9F80010E26821F496
:10364000E0611143C9F80010000708D5D9F800005F
:10365000216920F4605040EAC100C9F80000D9F89F
:10366000002002F00C00082841F20020C0F27A008D
:1036700050D14BF6DA63C2F38341C0F60003595CC4
:10368000D2033BD440F60010C0F23D00484341E075
:10369000606802280AD001282AD159F8041C89033D
:1036A00008D4012001B0BDE8F08300BF59F8041C24
:1036B0008901F6D5D9F8001021F003010843C9F8B3
:1036C0000000FFF7D5FC064641F28837D9F8000024
:1036D000616800F00C00B0EB810F97D0FFF7C8FCD9
:1036E000801BB842F2D9032001B0BDE8F08300BFCF
:1036F00059F8041C8907D4D5DCE700BFD9F80020AD
:103700004BF61863C2F34042C0F600039A5C48438C
:10371000B0FBF2F0D9F800104BF2F852C1F30311EC
:10372000C0F60002515C40F2A00220FA01F140F222
:103730000400C2F200000068C2F200021160FFF74C
:1037400059FE002001B0BDE8F08300000F220260A6
:1037500041F20402C4F20202136803F0030343605F
:10376000136803F0F0038360136803F4E063C3603D
:1037700012684FF4E06303EAD202026142F20000F1
:10378000C4F20200006800F0070008607047000003
:1037900040F2A00041F20401C2F20000C4F20201B2
:1037A000006809684BF20862C1F30221C0F600020A
:1037B000515CC8407047000040F2A00041F2040193
:1037C000C2F20000C4F20201006809684BF208620C
:1037D000C1F3C221C0F60002515CC840704700002E
:1037E0002DE9F04182B0002868D00446007841F20B
:1037F0000006C007C4F2020625D0706800F00C0075
:1038000004281BD0706800F00C00082802D17068F2
:10381000C00313D46068002800F06881B0F5A02FC1
:1038200000F07C81B0F5803F00F07C81306820F4AE
:1038300080303060306820F4802076E1306880038A
:1038400001D56068D0B32078800718D5706810F073
:103850000C0F07D0706800F00C0008286ED170685B
:10386000C0036BD43068800702D52069012825D1B8
:103870003068616920F0F80040EAC10030602078CB
:1038800000071FD42078400732D4E56995B17068ED
:1038900000F00C00082840F08F80012D0ED07068D9
:1038A000216A00F480328A4208D1616A00F4701003
:1038B000884203D1002002B0BDE8F081012002B0AF
:1038C000BDE8F081A069002862D00020C4F2422047
:1038D0000121C0F88014FFF7CBFB0546706A800712
:1038E00000F18C80FFF7C4FB401B0228F6D92AE1C7
:1038F000F06910F0805808D1F06940F08050F06114
:10390000F06900F080500090009847F20007C4F280
:1039100000073868C00529D4386840F480703860E2
:10392000FFF7A6FB054600BF3868C0051ED4FFF7A9
:103930009FFB401B6428F7D905E100BF20690028E0
:1039400040F20000C4F2422000F0828001210160B8
:10395000FFF78EFB054600BF306880073FF588AF54
:10396000FFF786FB401B0228F6D9ECE0E068002850
:1039700000F08080052800F09780012800F09880F2
:10398000306A20F001003062306A20F0040092E0DA
:103990000020C4F242200021C0F88014FFF768FB29
:1039A000054600BF706A80077FF56CAFFFF760FBCC
:1039B000401B0228F6D9C6E00027C4F242270020A7
:1039C0003866FFF755FB022D05460BD130688001A4
:1039D00040F1BE80FFF74CFB401B02284FF0030074
:1039E000F4D968E7306880017FF564AFFFF740FBEA
:1039F000401B02284FF00300F4D95CE740F2A0001E
:103A0000C2F20000006844F6D351C1F26201A0FB8B
:103A10000101480A019000BF00BF0198411E002823
:103A200001913FF42FAF00BF0198411E0028019182
:103A30003FF428AF00BF0198411E002801913FF4D8
:103A400021AF00BF0198411E00280191E4D119E780
:103A500000210160FFF70CFB054600BF30688007BE
:103A60007FF50DAFFFF704FB401B02284FF003006A
:103A7000F4D920E7306A20F001003062306A20F08B
:103A800004003062FFF7F4FA054641F2883700BFC0
:103A9000306A800720D5FFF7EBFA401BB8424FF0A1
:103AA0000300F5D907E700BF306A40F00400306238
:103AB000306A40F001003062FFF7DAFA054641F261
:103AC000883700BF306A800706D4FFF7D1FA401B61
:103AD000B842F7D937E000BFB8F1000F7FF4D5AE98
:103AE000F06920F08050F061CFE600BF306820F42C
:103AF00080303060306820F480203060FFF7B8FA02
:103B0000054600BF306880037FF59DAEFFF7B0FA31
:103B1000401B64284FF00300F4D9CCE6306840F431
:103B200080203060306840F480303060FFF7A0FAC9
:103B3000054600BF306880033FF585AEFFF798FA71
:103B4000401B6428F6D9032002B0BDE8F08100BF15
:103B5000206AB0F5803F05D17168A26821F4003178
:103B6000114371607168626A21F474111043084353
:103B7000706001203866FFF77BFA044630688001E8
:103B80003FF598AEFFF774FA001B02284FF00300D0
:103B9000F4D990E6704700007047000010B590F827
:103BA0003C20012A4FF0020233D080F83D20026809
:103BB000D2F804E0D2F808C00C682EF0700323435A
:103BC00040F2FF74C4F20004A24253600ADCB2F176
:103BD000804F13D040F20043C4F200039A420DD04C
:103BE00011E000BF42F60043C4F201039A4205D03F
:103BF00040F60003C4F200039A4204D149682CF055
:103C00008003194391600121002280F83D1080F863
:103C10003C20104610BD0000002804BF0120704762
:103C200010B5044690F83D0028B9002084F83C0007
:103C3000204600F06FF8022084F83D00206840F232
:103C4000FF730268C4F2000342F6004C9842C4F2CB
:103C5000010C15DCB0F1804F1AD040F20041C4F2E3
:103C60000001884214D0984218DCB0F1804F1DD07A
:103C700040F20041C4F20001884217D01AE000BFB0
:103C8000604505D040F60001C4F200018842EAD147
:103C9000A16822F070020A439842E6DD604505D033
:103CA00040F60001C4F20001884203D1216922F4E8
:103CB00040720A43A36922F08001D4F804E0E2686C
:103CC000194360450160C262C0F828E002D1616911
:103CD000CCF83010012141610269D20703D002699A
:103CE00022F001020261002084F8461084F83E10A0
:103CF00084F83F1084F8401084F8411084F8421092
:103D000084F8431084F8441084F8451084F83D107A
:103D100010BD000080B582B00068B0F1804F1CBFBC
:103D200002B080BD41F21C00C4F202000168002212
:103D300041F0010101600068062100F001000190DE
:103D400001981C20FFF7E6FB1C2002B0BDE8804074
:103D5000FFF7D0BB90F83D1001291CBF0120704730
:103D6000022180F83D10006840F2FF72C168C4F281
:103D70000002904241F00101C16009DCB0F1804FC6
:103D800012D040F20041C4F2000188420CD012E08F
:103D900042F60041C4F20101884205D040F600011C
:103DA000C4F20001884206D1816801F007010629AA
:103DB00004BF00207047016841F00101016000204C
:103DC0007047000080B590F83C20012A4FF00202B5
:103DD00000F0C28080F83D20D0F800C04FF6777226
:103DE000DCF8083023EA0202CCF808200B684F2BDD
:103DF00028DC1F2B44DD202B45D0302B43D0402B1B
:103E000040F0AC80D1F804E0C968DCF82030DCF880
:103E1000202022F00102CCF82020DCF8182022F02B
:103E2000F00242EA011123F00A0242EA0E02CCF843
:103E30001810CCF82020DCF8081041F0470121F0E0
:103E4000300180E06F2B27DDB3F5005F48D0B3F57C
:103E5000805F7AD0702B40F08180D1E901E3C9689E
:103E6000DCF8082043EA0E0322F47F4243EA0121F2
:103E70001143CCF80810DCF8081041F0770162E03B
:103E80000BB1102B6AD1DCF8081021F07001194336
:103E900041F0070157E000BF502B35D0602B5DD1BA
:103EA000D1F804E0C968DCF82030DCF8202022F0EA
:103EB0001002CCF82020DCF8182022F4704242EAEC
:103EC000013123F0A00242EA0E12CCF81810CCF80F
:103ED0002020DCF8081041F0670121F0100132E0E9
:103EE000D1E901E3C968DCF8082043EA0E0322F4B3
:103EF0007F4243EA01211143CCF80810DCF8081096
:103F000041F480411FE000BFD1F804E0C968DCF84B
:103F10002030DCF8202022F00102CCF82020DCF850
:103F2000182022F0F00242EA011123F00A0242EACC
:103F30000E02CCF81810CCF82020DCF8081041F064
:103F4000570121F02001CCF808100022012180F84F
:103F50003D10002180F83C10104680BD0122F5E79D
:103F60007047000070B504460068C5680669B1076F
:103F700016D515F0020113D06FF002010161012185
:103F800021778069800703D02046FFF7E9FF05E02D
:103F9000204600F08FF8204600F08EF800202077B1
:103FA000700719D515F0040016D020686FF00401D1
:103FB000016102212177806910F4407F04D02046FE
:103FC000FFF7CEFF06E000BF204600F073F8204662
:103FD00000F072F800202077300717D515F00800A0
:103FE00014D020686FF00801016104212177C069B5
:103FF000800703D02046FFF7B3FF05E0204600F01E
:1040000059F8204600F058F800202077F00619D51E
:1040100015F0100016D020686FF010010161082122
:104020002177C06910F4407F04D02046FFF798FF45
:1040300006E000BF204600F03DF8204600F03CF8C6
:1040400000202077F00718BF15F0010002D13006DC
:1040500009D412E020686FF001010161204600F0F0
:104060002DF8300609D515F0800006D020686FF0D5
:10407000800101612046FFF78DFD700609D515F01E
:10408000400006D020686FF040010161204600F03A
:104090001FF8B00658BF70BD15F0200008D0216889
:1040A0006FF0200220460A61BDE87040FFF774BD42
:1040B00070BD00007047000070470000006842F6C5
:1040C0000041C4F20101884208BFFFF771B970478F
:1040D000704700007047000010B504460068416951
:1040E00094F84120212A58D111F0800155D000BF09
:1040F00050E8050F216820F0800041E80502EAB190
:10410000206850E8050F216820F0800041E8050292
:10411000A2B1206850E8050F216820F0800041E836
:1041200005025AB1206850E8050F216820F0800090
:1041300041E8050212B12068DAE700BFA06B002851
:1041400018BFFEF783FC00BF206850E8030F21680A
:1041500020F0C00041E80302DAB1206850E8030F04
:10416000216820F0C00041E8030292B1206850E8C5
:10417000030F216820F0C00041E803024AB1206823
:1041800050E8030F216820F0C00041E80302002A34
:10419000DAD1202084F841002068416994F8422057
:1041A000222A40F0A98011F0400100F0A58000BF54
:1041B00050E8050F216820F0400041E80502EAB10F
:1041C000206850E8050F216820F0400041E8050212
:1041D000A2B1206850E8050F216820F0400041E8B6
:1041E00005025AB1206850E8050F216820F0400010
:1041F00041E8050212B12068DAE700BFE06B002851
:1042000018BFFEF723FC00BF206850E8030F2168A9
:1042100020F4907041E80302BAB3206850E8030F1D
:10422000216820F4907041E8030272B3206850E8DE
:10423000030F216820F4907041E803022AB320683C
:1042400050E8030F216820F4907041E80302002A2F
:10425000DAD11AE0206850E8050F216820F001004B
:1042600041E80502DAB1206850E8050F216820F026
:10427000010041E8050292B1206850E8050F21686D
:1042800020F0010041E805024AB1206850E8050F1E
:10429000216820F0010041E80502002ADAD1206BF4
:1042A000012824D1206850E8030F216820F0100075
:1042B00041E80302DAB1206850E8030F216820F0DA
:1042C000100041E8030292B1206850E8030F216812
:1042D00020F0100041E803024AB1206850E8030FC3
:1042E000216820F0100041E80302002ADAD12020E2
:1042F00084F8420000202063002010BD70470000B9
:10430000B0B582B0044600680168C368426901F034
:104310002F05202D03F0200506D12DB1204602B037
:10432000BDE8B04002F0A0BF5FEA017C1EBF02F012
:10433000010E03F4907212EB0E0255D1226B012A8A
:1043400005D111F0100218BF13F0100236D10A0681
:1043500022D513F080021FD094F84110212941D1B9
:10436000A168B1F5805F03D12169002900F0728254
:10437000216A4A1C226209784160E18C01390A04F1
:10438000E1842FD1C16821F08001C160C16841F092
:104390004001C16002B0B0BD490623D513F0400111
:1043A00020D0C16821F04001C1602021204684F85E
:1043B000411002B0BDE8B04000F068BC002101919E
:1043C000016801914168019101994169490600F133
:1043D0008F80A18DE28DE38D002B1CBF891A5FEACF
:1043E00001420CD102B0B0BDCA0718BF13F48072ED
:1043F00040F038814A0700F13B8140E1206850E8F5
:10440000030F226820F4907042E80303DBB12068B8
:1044100050E8030F226820F4907042E8030393B140
:10442000206850E8030F226820F4907042E80303EC
:104430004BB1206850E8030F226820F4907042E8E6
:104440000303002BDAD1206850E8050F226820F022
:10445000010042E80503DBB1206850E8050F22683F
:1044600020F0010042E8050393B1206850E8050FF1
:10447000226820F0010042E805034BB1206850E8B3
:10448000050F226820F0010042E80503002BDAD175
:10449000202084F8420000202063206850E8030FA9
:1044A000226820F0100042E80303DBB1206850E8E6
:1044B000030F226820F0100042E8030393B1206844
:1044C00050E8030F226820F0100042E803034BB1CC
:1044D000206850E8030F226820F0100042E8030330
:1044E000002BDAD1022289B220466263B4E000BF19
:1044F000E16B0A68526893B2002B3FF473AFA58D4D
:10450000AB42BFF46FAFE2858969202900F09D803E
:1045100050E8030F216820F4807041E80302EAB1FB
:10452000206850E8030F216820F4807041E80302FE
:10453000A2B1206850E8030F216820F4807041E8A0
:1045400003025AB1206850E8030F216820F48070FC
:1045500041E8030212B12068DAE700BF206850E8A2
:10456000050F216820F0010041E80502DAB120685A
:1045700050E8050F216820F0010041E8050292B1E2
:10458000206850E8050F216820F0010041E805028D
:104590004AB1206850E8050F216820F0010041E889
:1045A0000502002ADAD1206850E8050F216820F0C2
:1045B000400041E80502DAB1206850E8050F2168A3
:1045C00020F0400041E8050292B1206850E8050F54
:1045D000216820F0400041E805024AB1206850E817
:1045E000050F216820F0400041E80502002ADAD1D9
:1045F000202084F8420000202063206850E8030F48
:10460000216820F0100041E80302DAB1206850E888
:10461000030F216820F0100041E8030292B12068E6
:1046200050E8030F216820F0100041E803024AB16E
:10463000206850E8030F216820F0100041E80302D1
:10464000002ADAD1E06BFEF701FA02206063A08D48
:10465000E18D401A81B2204602B0BDE8B040FFF7BC
:1046600039BD00BF626C42F0010262644A0706D5A0
:10467000BEF1000F03D0626C42F0020262648A074E
:1046800006D5BEF1000F03D0626C42F004026264F2
:10469000BCF1000F06D555EA0E0203D0626C42F061
:1046A00008026264626C002A3FF49CAE11F02001A3
:1046B00018BF002D03D0204602F0D6FD20684169C6
:1046C000626C01F0400102F00802891800F0A2803B
:1046D00050E8030F216820F4907041E80302C2B350
:1046E000206850E8030F216820F4907041E803022D
:1046F0007AB3206850E8030F216820F4907041E8F5
:10470000030232B3206850E8030F216820F4907050
:1047100041E80302EAB12068DAE700BF206850E808
:10472000050F216820F0010041E80502DAB1206898
:1047300050E8050F216820F0010041E8050292B120
:10474000206850E8050F216820F0010041E80502CB
:104750004AB1206850E8050F216820F0010041E8C7
:104760000502002ADAD1206B012824D1206850E804
:10477000030F216820F0100041E80302DAB120683D
:1047800050E8030F216820F0100041E8030292B1C5
:10479000206850E8030F216820F0100041E8030270
:1047A0004AB1206850E8030F216820F0100041E86A
:1047B0000302002ADAD1202084F84200002020637E
:1047C0002068416949063FD550E8050F216820F06F
:1047D000400041E805022AB3206850E8050F21682F
:1047E00020F0400041E80502E2B1206850E8050FE2
:1047F000216820F0400041E805029AB1206850E8A5
:10480000050F216820F0400041E8050252B1206800
:10481000DAE700BF2046FFF771FD0020606402B0B8
:10482000B0BD00BFE06B78B146F66971C0F600011B
:104830004163FEF72FF900283FF4D4ADE06B416BE4
:1048400002B0BDE8B0400847204602B0BDE8B04025
:10485000FFF754BD216A31F8022B6FF35F224260EB
:1048600021628AE5002804BF0120704710B5044684
:1048700090F8410028B9002084F84000204600F05C
:1048800061F8242084F841002068D4E90212C3684A
:1048900023F40053C360036923F440531A430261B5
:1048A000D4E904231143C268194341F20C639A43CB
:1048B0001143C1604169A26921F44071114343F67B
:1048C0000002C4F201029042416103D0FEF760FF92
:1048D00002E000BFFEF770FF6268192148439100B3
:1048E000B0FBF1F048F21F51C5F2EB11A0FB012320
:1048F0005A096FF0630302FB0300322303EB00103D
:10490000A0FB0101F02303EA5113206803EB02121C
:10491000C1F3431111448160016921F490410161A7
:10492000416921F02A014161C16841F40051C1602F
:1049300000202021606484F8411084F842106063F4
:1049400010BD00002DE9F04385B00446006844F234
:104950000041C4F20001002788420497CDE90277A4
:1049600001976FD043F60001C4F20101884240F084
:10497000D68041F21800C4F20200016840F600053A
:1049800041F4804101600168C4F2010501F48041F5
:1049900000910099016801AE41F0040101600068D6
:1049A00040F2440800F00400009000984FF40070BA
:1049B0000190022002900320049028463146C4F260
:1049C0000208FEF737FA4FF480600190002728466E
:1049D0003146CDE90277FEF72DFA40F6583508F159
:1049E0001400C2F2000580264FF44059C5E90007C3
:1049F0002846C5E90276C5E90477C5E90679FEF7D8
:104A000073F9002818BFFCF787FDE5636C6240F678
:104A10009C35C2F200051020C5E900802846C5E992
:104A20000276C5E90477C5E90679FEF75DF9002845
:104A300018BFFCF771FDA5636C62252005210022DB
:104A4000252467E041F21800C4F20200416840F6F4
:104A5000000541F4003141604168C4F2010501F4F0
:104A6000003100910099016801AE41F0040101603C
:104A7000006840F2440800F0040000900098042010
:104A80000190022002900320049028463146C4F28F
:104A90000208FEF7CFF90820CDE901072846314684
:104AA0000397FEF7C7F940F6244508F13C00C2F22F
:104AB0000005102180264FF4805985E883002846A0
:104AC000C5E90367C5E90577C5F81C90FEF70CF941
:104AD000002818BFFCF720FDA5636C6240F6E035A6
:104AE00008F12800C2F200050021C5E900012846AE
:104AF000C5E90216C5E90411C5E90619FEF7F4F87F
:104B0000002818BFFCF708FDE5636C62262006212B
:104B100000222624FEF7FEFC2046FEF7EBFC05B043
:104B2000BDE8F08370B582B0044690F842002028BA
:104B30000AD113460A4600294FF0010018BF002B86
:104B400006D102B070BD00BF022002B070BD00BF30
:104B5000002522202563A262A385656484F84200B3
:104B60002168E06B47F2F10C47F2512E46F675765C
:104B7000C0F6000CC0F6000EC0F600060431C0E915
:104B80000ACEC0E90C65FEF7F3F8019520680168CC
:104B90000191416801910199216929B350E8030FFE
:104BA000216840F4807041E80302EAB1206850E8CF
:104BB000030F216840F4807041E80302A2B120682D
:104BC00050E8030F216840F4807041E803025AB1B5
:104BD000206850E8030F216840F4807041E8030228
:104BE00012B12068DAE700BF206850E8050F21689D
:104BF00040F0010041E80502E2B1206850E8050FED
:104C0000216840F0010041E805029AB1206850E8AF
:104C1000050F216840F0010041E8050252B120680B
:104C200050E8050F216840F0010041E80502002A24
:104C3000DAD100BF206850E8050F216840F040003D
:104C400041E80502DAB1206850E8050F216840F01C
:104C5000400041E8050292B1206850E8050F216844
:104C600040F0400041E805024AB1206850E8050FD5
:104C7000216840F0400041E80502002ADAD1002016
:104C800002B070BD70470000704700007047000020
:104C9000FEE700002DE9F04383B0044600680D46AE
:104CA00001680A9F0B9E41F480719946904601600D
:104CB00020464FF0011100223B46009600F0AEF86E
:104CC00050B120680068C00544BF4FF400702064F4
:104CD000032003B0BDE8F083206805F0FE01016108
:104CE0000221C0F2010120463A46334600F080F925
:104CF00020B1012003B0BDE8F08300BF0020029086
:104D000020683246416902918069394602900298D2
:104D1000204600F0DDF958B1206C0428E9D1206864
:104D2000016841F400710160012003B0BDE8F08327
:104D3000B9F1010F0AD020684FEA1821016120461D
:104D40003946324600F0C4F90028E5D120685FFA00
:104D500088F10161002003B0BDE8F08370B50368FD
:104D6000044653F8140F400711D40E46481C29D0AE
:104D700086BB00BF1868400527D4FEF779F9236881
:104D800053F8140F400739D518684007F2D50020B2
:104D900070BD00BF18684007F9D41868400514D4E6
:104DA00018684007F3D4186840050ED41868400707
:104DB000EDD41868400508D4186840074FF000008B
:104DC00048BF70BD18684005E4D56FF48060186076
:104DD000042014E0154603E053F8140F4007D6D41E
:104DE00018684005F1D4FEF743F9401B2368B04230
:104DF000F2D958694007EFD4202000E0202000219C
:104E00002022216384F83D2084F83E10226C104358
:104E10002064012084F83C1070BD00002DE9F041B1
:104E2000054600681E46144601F47F0201338FB226
:104E300042D0DDF81880B2F5803F40F087804069AD
:104E40003840C01BB0FA80F04009A04240F0C88052
:104E50004EB924E040693840C01BB0FA80F04009E8
:104E6000A04240F0BD80FEF703F9A0EB08012868DE
:104E7000B142EFD941693940C91BB1FA81F1490901
:104E8000A142E7D19BE000BF40693840C01BB0FAA7
:104E900080F04009A0424FF0000040F0A680FEF7ED
:104EA000E7F8286841693940C91BB1FA81F149091D
:104EB000A142E9D183E000BFB2F5803F24D100BF19
:104EC00041693940C91BB1FA81F14909A14240F059
:104ED000878041693940C91BB1FA81F14909A14272
:104EE00040F07E8041693940C91BB1FA81F149091E
:104EF000A14275D141693940C91BB1FA81F1490913
:104F0000A142DDD06CE000BF81693940C91BB1FA14
:104F100081F14909A14263D181693940C91BB1FAC4
:104F200081F14909A1425BD181693940C91BB1FABC
:104F300081F14909A14253D181693940C91BB1FAB4
:104F400081F14909A142DFD04AE000BF80693840C1
:104F5000C01BB0FA80F04009A04241D146B923E01D
:104F600080693840C01BB0FA80F04009A0423BD1B4
:104F7000FEF77EF8A0EB08012868B142F0D98169FC
:104F80003940C91BB1FA81F14909A142E8D116E0C3
:104F900080693840C01BB0FA80F04009A0424FF051
:104FA000000018BFBDE8F081FEF762F8286881694B
:104FB0003940C91BB1FA81F14909A142E8D1002069
:104FC0002021286385F83D1085F83E00296C41F0CA
:104FD0002001296485F83C000120BDE8F08100BF74
:104FE0000020BDE8F08100BF0020BDE8F081000096
:104FF000F0B581B0044600681D4643698FB203EAEC
:105000000701B94202D1002001B0F0BD4169164646
:10501000013201F4806125D0002940D1CEB100BF1A
:10502000FEF726F8411B2068B14203D94169394097
:10503000B9424BD141693940B942E4D0416949058F
:10504000EED52CE041693940B942DCD041694905CF
:1050500025D4FEF70DF8206841693940B942F1D0F6
:10506000202024E0D9B941693940B942CBD0416907
:10507000490514D441693940B942C4D04169490550
:105080000DD441693940B942BDD04169490506D4C2
:1050900041693940B942B6D041694905E3D5016853
:1050A00041F4007101606FF48061416104200021CE
:1050B0002022216384F83D2084F83E10226C1043A6
:1050C000206484F83C10012001B0F0BD2020EEE700
:1050D00070B50368044653F8140F000611D40E4649
:1050E000481C29D086BB00BF1868400527D4FDF7AF
:1050F000BFFF236853F8140F000639D5186800065F
:10510000F2D5002070BD00BF18680006F9D41868F9
:10511000400514D418680006F3D4186840050ED46E
:1051200018680006EDD41868400508D41868000611
:105130004FF0000048BF70BD18684005E4D56FF41B
:1051400080601860042014E0154603E053F8140F43
:105150000006D6D418684005F1D4FDF789FF401B3E
:105160002368B042F2D958690006EFD4202000E04D
:10517000202000212022216384F83D2084F83E1065
:10518000226C10432064012084F83C1070BD0000A4
:105190002DE9F04792B004464BF28C50C0F6000067
:1051A0008268D0E900101192CDE90F104BF27450D3
:1051B000C0F600008268D0E9001043F23336CDE932
:1051C0000C10002744F200010E9204F2FE604FF032
:1051D000F70A0225C3F63376C4F27A47C4F29C611B
:1051E0000FAB0022CDE90077CDE902660495CDF83A
:1051F00014A001F067FD002144F2000840F200090C
:10520000C4F2FA41C4F21C68C4F2482904F5D06023
:10521000CDE900170CAB41464A46CDE9026604953C
:10522000CDF814A001F04EFD4BF29850C0F60000EE
:105230008268D0E900100B92CDE909104BF2805042
:10524000C0F600008268D0E900100892CDE906108F
:1052500046F2000104F2BE50C4F26A6109AB0022BA
:10526000CDE90077CDE902660495CDF814A001F0F0
:1052700029FD04F5A86006AB41464A46CDE9007712
:10528000CDE902660495CDF814A001F01BFD0020C5
:1052900012B0BDE8F087000010B540F6303046F29D
:1052A0000041C2F20000C4F20001022200234FF0CC
:1052B000807480E80E0000F10C014FF4402C4FF494
:1052C000401E81E8085084618383FDF785FA002839
:1052D00008BF10BDBDE81040FCF71EB980B582B014
:1052E00041F21400C4F202000168002241F0010101
:1052F00001600068052100F00100019001980E2076
:10530000FEF708F90E20FEF7F5F80F200521002220
:10531000FEF700F90F20FEF7EDF81020052100221E
:10532000FEF7F8F81020FEF7E5F81120052100221D
:10533000FEF7F0F8112002B0BDE88040FEF7DAB8C1
:10534000F0B599B00020CDE9160016A802F036F9A4
:1053500040F20817C2F2000738604BF2A450C0F6C2
:10536000000090E87E0080690DF13C0C8CE87E0026
:1053700015900FA8002102F029F978604BF2C05077
:10538000C0F6000090E84E00D0E9045480690DF1A9
:10539000200C8CE84E000E9008A80021CDE90C549A
:1053A00002F014F9B8604BF2DC50C0F6000090E84F
:1053B0004E00D0E9045480690DF1040C8CE84E00D5
:1053C000079001A80021CDE9055402F0FFF8F8602C
:1053D00019B0F0BDF0B585B0002541F21800049574
:1053E000C4F20200016840F6004441F0100101607F
:1053F0000168C4F2010401F01001009100990168F4
:10540000002241F02001016001684FF4405601F094
:10541000200100910099016841F0040101600168D8
:1054200001F0040100910099016841F00801016058
:1054300000684FF4405100F00800009000982046AA
:10544000FDF710FE4FF44060CDE9010501AD0127E5
:10545000204629460397FDF7EDFC032004902046E3
:105460002946CDE901670397FDF7E4FC05B0F0BDDF
:1054700080B540F6684045F20041C2F20000C4F237
:10548000000148F2A06200234FF4804CC0F20102F8
:1054900080E80E00C0E9033CC0E90533C0E90733EA
:1054A000FDF7ECFD002808BF80BDBDE88040FCF79B
:1054B00033B8000080B586B040F604500021C2F237
:1054C000000041F2873C0591CDE90311CDE90011BF
:1054D0004FF0804241F61F43C0E9021C0161802168
:1054E000C0E900238161FEF797FB002818BFFCF795
:1054F00013F84FF48050029040F60450C2F20000BE
:1055000002A9FEF75FFC002818BFFCF705F840F67B
:105510000450C2F200006946FEF740FB002818BFA5
:10552000FBF7FAFF06B080BD80B540F64C5043F65D
:105530000001C2F20000C4F2010100234FF00C0C84
:105540004FF4165280E80E00C0E90333C0E905C3EA
:10555000C361FFF787F9002808BF80BDBDE8804020
:10556000FBF7DABF80B540F6945044F20041C2F236
:105570000000C4F2000100234FF00C0C4FF4E132A4
:1055800080E80E00C0E90333C0E905C3C361FFF73B
:1055900069F9002808BF80BDBDE88040FBF7BCBFAB
:1055A000FEE700008289038A42810A88C38112BA19
:1055B000120C82814A8812BA120C02828A8812BAAC
:1055C000120C42828979017570470000B0F90A20F7
:1055D000B0F90C108B1A13F5805F07DA828D013257
:1055E000828512B201EB423181617047828DB3F541
:1055F000805FC4BF013A828512B201EB4231816102
:1056000070470000FEE700002DE9F04F85B040F63E
:10561000684400254FF480760127C2F200040DF1A2
:10562000120B0DF113084FF0000900BF09F1B00093
:105630008DF8100004A8CDE900072046782100224B
:1056400001230296FDF7D6FD0DF11100CDE900070B
:1056500020467821002201238DF811500296FDF793
:10566000C9FD10208DF81200204678210022012368
:10567000CDE900B70296FDF7BDFD4FF0000A00BF6F
:1056800020467821402201238DF81350CDE9008770
:105690000296FDF7AFFD0AF101004FFA80FABAF168
:1056A000FF3FEDDCB9F1070F09F10109BED305B0E9
:1056B000BDE8F08F2DE9F04F89B0994280F0FC8071
:1056C0008946010901F11007824200F00F08069394
:1056D00064D9CDE90487DDE91271101A00294FF071
:1056E0000004039000F0948040F66846DDF814B0A2
:1056F0004FF4807A4FF00108C2F200060DF1220546
:10570000A9F150008DF81F000DF11F00CDE9000830
:105710003046782100220123CDF808A0FDF76AFD6C
:1057200008A8CDE9000830467821002201238DF831
:1057300020B0CDF808A0FDF75DFD049878218DF824
:1057400021000DF12100CDE900083046002201239F
:10575000CDF808A0FDF74EFD039800EB040B00BF49
:10576000385D7821C0438DF8220030464022012365
:10577000CDE90058CDF808A0FDF73CFD0134E0B2BA
:105780005FFA8BF18142EBD109F1010906995FFAC9
:1057900089F0DDF814B08842B2D38DE040F6684657
:1057A0004FF480740125C2F200060DF1200A0DF1BC
:1057B000210B00BFA9F150008DF81F000DF11F0053
:1057C000CDE9000530467821002201230294FDF73F
:1057D00011FD30467821002201238DF82070CDE99B
:1057E00000A50294FDF706FD304678210022012332
:1057F0008DF82180CDE900B50294FDF7FBFC09F19D
:10580000010906995FFA89F08842D3D354E000BFBA
:1058100040F66846059D4FF480784FF0010BC2F2C8
:1058200000060DF1230A00BFA9F150008DF81F00FA
:105830000DF11F00CDE9000B304678210022012335
:10584000CDF80880FDF7D6FC08A8CDE9000B30465E
:105850007821002201238DF82050CDF80880FDF733
:10586000C9FC049878218DF821000DF12100CDE9C3
:10587000000B304600220123CDF80880FDF7BAFC6A
:1058800003980519385D78218DF8230030464022B1
:105890000123CDE900ABCDF80880FDF7ABFC013466
:1058A000E0B2E9B28142EDD109F1010906995FFA4E
:1058B00089F0059D8842B7D309B0BDE8F08F00009C
:1058C0002DE9F04184B0C820FDF7A0FA40F2880627
:1058D000C2F20006307840F66844C2F200048DF847
:1058E0000F004FF4807801270DF10F052046782135
:1058F00000220123CDE90057CDF80880FDF77AFC9E
:10590000707878218DF80F00204600220123CDE920
:105910000057CDF80880FDF76DFCB07878218DF840
:105920000F00204600220123CDE90057CDF8088062
:10593000FDF760FCF07878218DF80F0020460022FA
:105940000123CDE90057CDF80880FDF753FC3079ED
:1059500078218DF80F00204600220123CDE9005761
:10596000CDF80880FDF746FC707978218DF80F009E
:10597000204600220123CDE90057CDF80880FDF72D
:1059800039FCB07978218DF80F00204600220123E0
:10599000CDE90057CDF80880FDF72CFCF07978218F
:1059A0008DF80F00204600220123CDE90057CDF8E5
:1059B0000880FDF71FFC307A78218DF80F00204613
:1059C00000220123CDE90057CDF80880FDF712FC35
:1059D000707A78218DF80F00204600220123CDE94E
:1059E0000057CDF80880FDF705FCB07A78218DF8D6
:1059F0000F00204600220123CDE90057CDF8088092
:105A0000FDF7F8FBF07A78218DF80F002046002290
:105A10000123CDE90057CDF80880FDF7EBFB307B83
:105A200078218DF80F00204600220123CDE9005790
:105A3000CDF80880FDF7DEFB707B78218DF80F0034
:105A4000204600220123CDE90057CDF80880FDF75C
:105A5000D1FBB07B78218DF80F0020460022012376
:105A6000CDE90057CDF80880FDF7C4FBF07B782125
:105A70008DF80F00204600220123CDE90057CDF814
:105A80000880FDF7B7FB307C78218DF80F002046A9
:105A900000220123CDE90057CDF80880FDF7AAFBCD
:105AA000707C78218DF80F00204600220123CDE97B
:105AB0000057CDF80880FDF79DFBB07C78218DF86C
:105AC0000F00204600220123CDE90057CDF80880C1
:105AD000FDF790FBF07C78218DF80F002046002226
