:020000040800F2
:10000000302A0020E5010008D15C00085D5300089B
:100010006D5C0008591A0008157F000800000000F8
:100020000000000000000000000000000177000850
:10003000091C000800000000B1760008797A000869
:10004000FF010008FF010008FF010008FF01000890
:10005000FF010008FF010008FF010008FF01000880
:10006000FF010008FF010008FF010008FF01000870
:10007000FF010008FF0100089D1A0008A91A0008E6
:10008000B51A0008C11A0008FF010008FD7E00082B
:10009000097F0008FF010008FF010008FF010008B8
:1000A000FF010008AD7A0008FF010008FF01000809
:1000B000B97A0008FF010008FF010008FF010008ED
:1000C000FF010008FF010008FF010008FF01000810
:1000D000FF010008C57E0008E17E0008FF0100085E
:1000E000FF010008FF010008FF01000800F002F80E
:1000F00000F04FF80AA090E8000C82448344AAF173
:100100000107DA4501D100F044F8AFF2090EBAE870
:100110000F0013F0010F18BFFB1A43F0010318473B
:10012000CCC80000ECC80000103A24BF78C878C1E1
:10013000FAD8520724BF30C830C144BF04680C60ED
:10014000704700000023002400250026103A28BF35
:1001500078C1FBD8520728BF30C148BF0B60704739
:1001600066290BF03586002070471FB500F0A9F90D
:1001700000F07AFD0400002000210AF0FDFC401C84
:100180006060002000210AF0E1FCE0601FBD10B5B6
:1001900010BD00F0DDFE1146FFF7E7FF07F0FAFEA5
:1001A00001F086F903B4FFF7F2FF03BC01F0DEF9BA
:1001B0000B49D1F800C04A685CF8043B1068184449
:1001C00042F8040B8C4528BFA1F1DC0C8A4228BF01
:1001D000A1F1DC02C1F800C04A6020F00040704785
:1001E0009C0100200948804709480047FEE7FEE7D8
:1001F000FEE7FEE7FEE7FEE7FEE7FEE7FEE7FEE7D7
:1002000004480549054A064B70470000A97A0008D2
:10021000ED00000830240020302A00203026002085
:100220003026002053EA020C00F069802DE9F04BE3
:100230004FF00006002B1FBFB3FA83F503FA05F455
:1002400024FA05F65E4012BF1643B2FA82F502FAAE
:1002500005F4C5F120051EBF22FA05FC44EA0C0492
:10026000203556EA044C4FEA144418BF641C4FF082
:1002700000084FF00009904271EB030C39D30029BC
:1002800019BFB1FA81F701FA07F6B0FA80F700FA60
:1002900007F6C7F120071EBF20FA07FC46EA0C0646
:1002A0002037B6FBF4FCA7EB0507103F07F01F0B48
:1002B000CBF120062CFA06F60CFA0BFB44BFB34632
:1002C0000026202FA4BF5E464FF0000B5BEA060C11
:1002D00008BF4FF0010B19EB0B0948EB0608ABFB0D
:1002E000027C06FB02CC0BFB03CCC01B71EB0C01A8
:1002F000C1E70B46024641464846BDE8F08B13B5C0
:10030000084318BF4FF0FF300146AFF30080BDE84F
:100310001C4070470FB41CB50C0007AA009007D012
:100320004142A14202D32044401E01E04FF0FF3081
:10033000074B7B4469460190069800F0ACFB002017
:10034000002C01D0009908701CBC5DF814FB000063
:10035000870700002DE9F0474FF0000A8946044660
:10036000C0F820A02046E1688847002876D02528DC
:1003700006D0D4E901219047206A401C2062F1E7B1
:10038000E168204600258847C4F81CA006460027DF
:10039000C4F818A02A2E09D030460AF090FA38B3D3
:1003A00004EB8708303EC8F8186019E059F8041BC0
:1003B000204604EB87029161E1688847012F0646D9
:1003C00018D1E069002820DA25F020051DE0D8F8D2
:1003D000180000EB800006EB40003038C8F8180029
:1003E0002046E168884706460AF069FA0028EED1FF
:1003F000012F0AD02E2E08D12046E16888477F1CA5
:100400000646022F45F02005C4DBA069002803DA68
:10041000404245F00105A061E80701D025F0100534
:10042000B6B1A6F14100192802D8203645F400657E
:100430004A463146204625604D46FFF791FE58B1A9
:10044000012806D0ED1D25F0070000F1080989E715
:1004500004E005F1040985E730468AE7206ABDE833
:10046000F08770B5064600F0F3F80468054630469C
:100470000A22002100F082FB2C6070BD70B5064698
:1004800000F0E6F80468054630460A22002100F034
:1004900075FB2C6070BD00000B4910B5A1F17C020A
:1004A0000A4CC2E93712372106E000EB104342F84C
:1004B0002130074B00FB03400B1EA1F10101F4DCCE
:1004C00010BD0120E8E700003C010020E119D666DC
:1004D000CD0D010040EA010310B59B070FD1042A9E
:1004E0000DD310C808C9121F9C42F8D020BA19BAFF
:1004F000884201D9012010BD4FF0FF3010BD1AB164
:10050000D30703D0521C07E0002010BD10F8013BB8
:1005100011F8014B1B1B07D110F8013B11F8014BDF
:100520001B1B01D1921EF1D1184610BD032A40F2C7
:10053000308010F0030C00F0158011F8013BBCF185
:10054000020F624498BF11F801CB00F8013B38BF9D
:1005500011F8013BA2F1040298BF00F801CB38BFAB
:1005600000F8013B11F0030300F04083083AC0F0AB
:10057000088051F8043B083A51F804CBA0E8081071
:10058000F5E7121D5CBF51F8043B40F8043BAFF3A4
:100590000080D20724BF11F8013B11F801CB48BFFE
:1005A00011F8012B24BF00F8013B00F801CB48BF34
:1005B00000F8012B70474FF000020429C0F01280B0
:1005C00010F0030C00F01B80CCF1040CBCF1020F06
:1005D00018BF00F8012BA8BF20F8022BA1EB0C01DB
:1005E00000F00DB85FEAC17C24BF00F8012B00F8D1
:1005F000012B48BF00F8012B70474FF0000200B5F7
:10060000134694469646203922BFA0E80C50A0E835
:100610000C50B1F12001BFF4F7AF090728BFA0E8E3
:100620000C5048BF0CC05DF804EB890028BF40F8AF
:10063000042B08BF704748BF20F8022B11F0804FF1
:1006400018BF00F8012B70477047704770470000D3
:1006500000487047A401002010B5FFF7F9FF0068BB
:1006600010BD10B50446FFF7F3FF046010BD2DE97F
:10067000FF4F0C461E464FF0FF378BB0D2E900010A
:10068000DDF860800A908A46C1F30A5505B93D46F7
:10069000002108464FF00000BAF1000F00F44000BE
:1006A00005DA00EB80004FF4400101EA50004FEA08
:1006B0009059B9F1010F00DDB9460A9850EA4A0095
:1006C0000ED044F61050A5F2FF3545432F14B8F173
:1006D000000F1ED07542291E1EDDC9F100021CE06C
:1006E000B8F1010F4FF0000001D0302103E0F243D8
:1006F00005E02154401CB042FBDB304600220021C3
:1007000021540B99C1F80880C1E900200FB0BDE861
:10071000F08FBD1B6D1CDEE74A4600DA694206A871
:1007200000F0A4FB06AB93E8070003AB83E80700E7
:1007300050460A9909F028FB8DE80700A0F5005003
:100740001F3800900398002D0ADD42F21F014A462F
:100750000844002303A90390684609F0D3FD09E08B
:10076000A0F500504A461F38002303A903906846AD
:1007700009F0F2FD8DE807000004000C03D04FF0F3
:10078000FF30410800E01046B8F1000F03D000220E
:10079000009215461EE0751E05D400F069FA30324D
:1007A00062556D1EF9D5B3460122084302D00022DE
:1007B0007F1C04E02078302801D100227F1E002A0F
:1007C000099784D01DE0112D07DA00F051FA30327C
:1007D00062556D1C50EA0102F5D1084302D0009821
:1007E000C8B10EE00021681E05E0235C625C635422
:1007F0002254401E491C8142F7DBAB46A81B401E19
:100800000990002004F80B000B98099AC0F80880A2
:10081000C0E9002B7AE711264FF0000857E72DE9D1
:10082000F04F88460446D21D22F0070191B0D1E96D
:100830000001CDE90A0109F0DBFE02460B98C00F6A
:1008400001D02D2007E02068810701D52B2002E090
:10085000202101EAC000032A099001D0072A05DB04
:1008600003464146204600F051FA0BE1207880060D
:1008700001D5E06900E00620B8F1650F814606D099
:10088000B8F1660F18D0B8F1670F70D131E00020D1
:10089000B9F1110F009001DB112301E009F101030F
:1008A0000AAA01A90CA8FFF7E2FEDDE90C700026F8
:1008B00009F10105834647E001204B4600904FF0C7
:1008C00000470AAA01A90CA8FFF7D1FEDDE90DB087
:1008D0000C995D46002610B909F101000D18B9EB1D
:1008E000050003D4C0F1FF3609F10105A5EB0900AD
:1008F0002BE0B9F1010F01DA4FF001090020B9F145
:10090000110F0090484601DD112300E003460AAABA
:1009100001A90CA8FFF7ABFEDDE90C704D460026DF
:100920008346207800070AD4AB4500DA5D4601A86B
:10093000012D04DD411911F8011C302907D04F4564
:1009400002DA17F1040F04DA012082460FE06D1E6F
:10095000EEE7002F02DCED1B3E4403E0781CA842CA
:1009600000DD7D1CB81B00F1010A4FF00047207824
:10097000000703D4AA4501DB4FF0FF3A0021B7F18D
:10098000004F0DF143088DF8431024D002202B2393
:10099000002F01DA7F422D230A21021EA0F101005F
:1009A00000DC5FB197FBF1FC97FBF1F201FB1C7CD3
:1009B00017460CF1300C08F801CDEEE7A8F1010064
:1009C00003702188090501D5452100E06521A0F1CA
:1009D000010800F8011C09980FA9A1EB0807FF1DE9
:1009E00000B10120411901EBEA70A1693844081AED
:1009F000401EA0612078C00602D42046AFF30080DC
:100A0000099828B1D4E901219047206A401C20624E
:100A10002078C00622D52046AFF300801EE0002ECD
:100A200004DBB34502DD01A8805D00E03020D4E99D
:100A300001219047206A401C2062761CAAF1010027
:100A40005FEA000A0AD100F00FF9C0680168405C53
:100A5000D4E901219047206A401C2062281EA5F19C
:100A60000105DCDC07E0D4E9012118F8010B90470F
:100A7000206A401C2062381EA7F10107F3DC2046E3
:100A8000AFF30080032011B041E6000001694A1C69
:100A900002610878704700B58FB0CDE901310021BF
:100AA000059105497944CDE9031011466846FFF7E1
:100AB00051FC0FB000BD0000E5FFFFFFD1E90023AE
:100AC0009A4202D2531C0B60107070470FB40B0097
:100AD00010B54FF000048AB00FA900910E99CC60B8
:100AE000234C7C44234A7A44CDE9064200D00423B7
:100AF0006FF00042CDE901321F4A7A446B460892FA
:100B0000024600200BF0ECF90AB010BC5DF814FBB3
:100B1000F0B507464FF0FF301E4615460C463B46E3
:100B200085B06A460091CDE901013146002004906C
:100B300004A8FFF7CBFF04990346601825B109B15B
:100B4000024600E022462A6000290ED0002B02DD7A
:100B50000099814209D03B466A463146001B009409
:100B6000CDE9010404A8FFF7B1FF05B0F0BD000016
:100B7000A7020000C1020000FD0100002DE9F047BE
:100B800091460F4680460446002614F8015B2DB1BD
:100B900000F062F80068405DC007F6D12B2D02D04E
:100BA0002D2D18D0641E4A463946204600F00EF915
:100BB00027B13968A14201D1C7F800804FF0020483
:100BC00071050BD54042002803DDFFF741FD0460AD
:100BD000A007BDE8F08746F48066E4E70028F8DA6D
:100BE000FFF736FD04606FF00040F2E710B5203AE1
:100BF000C0F00B80B1E81850A0E81850B1E81850C8
:100C0000A0E81850203ABFF4F5AF5FEA027C24BF99
:100C1000B1E81850A0E8185044BF18C918C0BDE882
:100C200010405FEA827C24BF51F8043B40F8043B4B
:100C300008BF7047D20728BF31F8023B48BF11F800
:100C4000012B28BF20F8023B48BF00F8012B70475A
:100C500000487047A401002010B500F005F8001D01
:100C600010BD00BF159F000000487047C401002060
:100C700030B5B0F10A0271F100034FEA900E4EEA6E
:100C8000817EB0EB0E0061EB91014FEA101E4EEA3F
:100C9000017E10EB0E0041EB11114FEA102E4EEACF
:100CA000016E10EB0E0041EB11214FEA104E4EEA9F
:100CB000014E10EB0E0041EB1141401841F10001D3
:100CC0004FEAD00040EA41704FEAD1014FEA810477
:100CD00044EA907410EB800544EB01046D1944EB79
:100CE0000404521BA3414FF0000348BF0A3200D551
:100CF00030BD401C41F1000130BD10B50446FFF786
:100D0000ABFF0068005D00F0010010BD2DE9F0416F
:100D10001F46044603260168072A01F4006004DB2D
:100D200008B116A505E016A503E008B115A500E079
:100D300015A521F010002060A069C01EA0610FB1B0
:100D4000401EA0612046AFF300804FB1D4E90121DD
:100D500038469047206A401C2062C01C206206E092
:100D6000206AFAE7D4E9012115F8010B9047761EB5
:100D7000F8D22046AFF30080BDE8F0814E414E002E
:100D80006E616E00494E4600696E6600426842B16F
:100D9000016811F8013B23B1521EC0E90012184648
:100DA00070470121C160881E704742685AB1C3680C
:100DB000016843B983688B4205D0491E521CC0E9C3
:100DC0000012002070474FF0FF3070472DE9F05FB0
:100DD000824615468B4600270AF10104B946007881
:100DE000302801D09DB113E014F8010B01277828B9
:100DF00003D0582801D045B10AE00DB1102D07D11C
:100E0000002714F8010B102502E0082500E00A2550
:100E10000026B0460EE005FB080005FB06F10127A1
:100E20001FFA80F801EB1046B6F5803F00D3B946B3
:100E300014F8010B294600F0B0F80028EBDABBF1FA
:100E4000000F05D00FB1641E00E05446CBF80040FF
:100E5000B9F1000F06D0FFF7FBFB02210160C81EAD
:100E6000BDE8F09F48EA0640FAE700002DE9F047A8
:100E7000814616468AB0354878440DC88DE80D0085
:100E800032487844801C03AC0DC884E80D0041F65C
:100E90009B300844372190FBF1F290FBF1F5A5F16E
:100EA000800501FB12041B3C02D56442012000E0D6
:100EB0000020DFF898A080460027FA44AAF1BE0A75
:100EC0000EE0E0070AD03246684607EB47010123EF
:100ED0000AEB810109F040FA8DE8070064107F1CDD
:100EE000002CEED1194F7F44AE3F19E0E80715D032
:100EF00007EB04100DF1180A90E80E008AE80E00C6
:100F0000C068F04201D1981908903246012306A921
:100F100003A809F021FA03AB83E807006D10641CF5
:100F2000002DE3D14FF0010332466946B8F1000FBE
:100F300003A802D009F0E6F901E009F00DFAC9E9C9
:100F40000001C9F808200AB0BDE8F0873CB10000F4
:100F50007546FFF77DFEAE4605006946534620F014
:100F60000700854618B020B5FFF74AF9BDE82040D4
:100F70004FF000064FF000074FF000084FF0000B55
:100F8000AC46ACE8C009ACE8C009ACE8C009ACE8C4
:100F9000C00921F007018D4670473A2800D2303849
:100FA00020F02002412A01D3A2F13700884201D368
:100FB0004FF0FF30704700002DE9FF4F06468BB021
:100FC0000878FF2806D0491C2D2805D000244FF0B2
:100FD000000908E000200CE00124F8E709EB890390
:100FE000491C00EB43090878FF28F7D114B1C9F177
:100FF00000008146107800252C46AA4629462D2857
:1010000001D02B2804D1521C2D2813D00020824659
:101010008B461078FF280FD04FF0000C0A21521C8D
:10102000A5FB017804FB018105FB0C11C5194BEBF5
:101030000104EEE70120EAE7002108464FF0000036
:10104000BAF1000F02D000EB80004008C0F38157D6
:10105000012F01DD4FF0FF370E9955EA040009EB2F
:1010600001080BD04FF0020918F5FA7F16DA4FEAA3
:10107000CA70002F706008DD012007E04FEACA70D7
:10108000C6E900B00FB0BDE8F08F00203060FFF778
:10109000DFFAC0F800901821084616E0B8F5FA7F8C
:1010A00018DD002F02DAF748784401E0F64878446A
:1010B000D0E90010C6E9001040EACA707060FFF77E
:1010C000C7FAC0F80090142108460FB0BDE8F04FF1
:1010D0000AF07BBE002108464FF00000B8F1000185
:1010E000099002DAC7F1000200E03A4601DAC8F1DD
:1010F000000106A8FFF7BAFE06AB93E8070003ABB2
:1011000083E8070044F23E005BEA04010090584681
:1011100004D144F21E012C465D460091210C0904C5
:10112000014306D10099240444EA15442D041039E2
:10113000009104F07F41014306D10099240244EA62
:1011400015642D020839009104F07041014306D165
:101150000099240144EA15742D01091F009104F03F
:101160004041014306D10099A40044EA9574AD00C2
:10117000891E009104F00041084304D100986D19C4
:101180006441401E00904FF001033A466846B8F1B2
:10119000000FCDE9014503A902DD09F0F2F801E0F5
:1011A00009F0C5F8BAF1000F04460D4601D084F0ED
:1011B0000044002108464FF00000099940F2FF77F3
:1011C000484010F00C0F07D124F00040284303D012
:1011D000C4F30A50B84212D1FFF73AFAC0F80090AF
:1011E000C4F30A50B8420AD1A8487844D0E90010A4
:1011F000C6E9001004F000410843706042E7C6E908
:1012000000543FE72DE9FF4F1F464FF0000A4FF013
:10121000FF38454691B0D7E90146CDF83CA0FFF72D
:1012200023FDC0680168405C1090B96912986D1C7C
:101230008847396A814688470028F6D1B9F1FF3FCF
:101240000AD0002E24F4D06411DDB9F12B0F08D0A0
:10125000B9F12D0F0BD102E0404615B013E744F46D
:101260008064B96912986D1C8847761E81466005B6
:1012700004A901D52D2000E02B20002E01F1010B47
:101280000DF130088DF810003FDDB9F1690F08D07D
:10129000B9F1490F05D0B9F16E0F02D0B9F14E0F77
:1012A0001CD13B4601A8009580E85002DDE91212EE
:1012B0006FF002000AF018FEC11CCED10EE0B96931
:1012C00012986D1C884781461398761E44F400746A
:1012D00005600F98401C002E0F9016DDB9F1300FFD
:1012E000EDD0B9F1780F02D0B9F1580F0DD10F98A8
:1012F00001280AD13B46CDE90054DDE91212001F56
:1013000002960AF0EFFDC11CA7D1109989453ED184
:1013100044F0800406E01399681CAAF1010A44F421
:1013200000740860B9696D1C1298761E88473028D1
:101330008146F0D02BE01099894505D1200603D4D1
:10134000761E44F0800418E0484609F0B8FA08B365
:10135000761E0DF123029345A9F1300044F4007488
:1013600006D20BF8010B200607D5AAF1010003E015
:10137000200602D40AF101008246A00502D5139985
:10138000681C0860B96912986D1C88478146002E58
:10139000D1DC53E0002E51DDB9F1650F02D0B9F177
:1013A000450F4BD1A00549D5B9696D1C1298761E21
:1013B00024F440748847002E81460CDD2B2804D08D
:1013C000B9F12D0F07D144F48074B96912986D1CDE
:1013D0008847761E8146E00501D52D2100E02B21AE
:1013E00008F8011BCDF8008021E0761E0DF13901CF
:1013F000884544F400740CD2A9F1300010F0FF00CD
:1014000088F8000002D10099884509D908F101083F
:1014100006E0E00501D51E4801E042F20F70824669
:10142000B96912986D1C8847814613980560002E93
:1014300004DD484609F043FA0028D6D1F96912982C
:101440008847FF2053468BF8000088F800000020F2
:101450000A900B9004AA0CA90AA8FFF7ADFDA005FD
:1014600002D46FF00100F8E614F0240F12D0E00768
:101470001CD13868DDE90A12031D3B600068C0E931
:10148000001213E068B900005AB900001EB800004D
:10149000F1D8FFFF0AA9684609F0ECF8E00705D18A
:1014A0003868009A011D3960006802602846D4E659
:1014B00010B50446AFF300802046BDE81040FEF7AB
:1014C00071BE00004FF0013C50F8042B51F8043B72
:1014D0009A4221D1A2EB0C03934313EACC1317D108
:1014E00050F8042B51F8043B9A4215D1A2EB0C039F
:1014F000934313EACC130BD150F8042B51F8043B5F
:101500009A4209D1A2EB0C03934313EACC13DBD02C
:101510004FF00000704700BFD01A01BAB1FA81F154
:1015200001F0180122FA01F0CB40DBB2C0B2C01AC0
:10153000C1F120012CFA01F3D11A914311EAC31130
:10154000E6D17047B2F120030AD5C2F1200301FAB7
:1015500002F120FA03F341EA030100FA02F07047B6
:1015600000FA03F14FF00000704700000149182015
:10157000ABBEFEE726000200704700002DE9FF4FDA
:101580001F464FF03C0987B04FF00042DDE91410D0
:1015900001F10108DDF858A002EA40500390002054
:1015A00005908346054604460490B969461E08988E
:1015B0008847AAF1010A0290BAF1000F3BDD0298B8
:1015C0002E2815D01021FFF7E8FC00282EDB4FF065
:1015D000010B0599014317D0B9F1000F0BDB4A4607
:1015E000C117FFF7AFFF05430C43A9F1040905E05C
:1015F000012004900BE008B145F0010501200590A1
:10160000049820B9361D02E0049800B1361FB9696C
:10161000089808F101088847BBF1000FAAF1010AF8
:101620000290C9D00999C1F80080C5E702987028D6
:1016300008D0502806D0F96908988847BBF1000FF8
:1016400014D04FE0002002900120BBF1000F049065
:1016500009D0B969089808F101088847AAF1010979
:10166000B9F1000F07DCF969089888476FF00100AD
:101670000BB0BDE8F08F2B2804D02D280CD14FF0F3
:10168000FF300490B969089808F101088847A9F16A
:101690000109B9F1000FE6DD411CE4D00A21FFF792
:1016A0007CFC0028DFDB029908F1010801EB8101D5
:1016B00000EB41000290B969089888470A21FFF7BA
:1016C0006CFC099AA9F10109B9F1000FC2F8008078
:1016D00001DD0028E7DAF96908988847049902983B
:1016E00000FB016655EA040004D004F04041090003
:1016F00002D006E0039898E0A40044EA9574AD0097
:10170000B61E04F00041080002D16D196441761E36
:10171000159810F0240F03D04FF00B095C4803E03C
:101720004FF028096FF07D008246564507DAAAEB94
:1017300006018944B9F1410F01DD4FF04109012053
:101740000021A9F10102FFF7FDFE024628400B46E9
:101750002140084301D0012100E00021501E0291E8
:1017600043F1FF3128402140084301D0012000E02F
:1017700000200299834651EA0B014FD00021084610
:101780004FF00000039900F4400039B100EB8000F5
:101790004FF4400100EBD07001EA60008015012891
:1017A00002DD4FF0FF3000E013D0401C36D002982D
:1017B00060B3BBF1000F0CD14A4601200021FFF7B6
:1017C000C1FE28402140084301D0012000E0002054
:1017D000E0B101204A460021FFF7B4FE034640195C
:1017E0000A4661412D1A8C4111D3B9F1400F09DD30
:1017F000159810F0240F02D0AAF1340603E0AAF1E4
:10180000170600E0761C00254FF0004406E05B1E42
:1018100042F1FF3220EA030521EA0204CAF1010085
:10182000B04206DA1B49039808430190002000905B
:101830000EE0039AC4F3D321E80A0A43164940EAAA
:1018400044500A433146CDE90002684609F02CF8BD
:10185000159810F0240F0BD01598C00715D13868D3
:10186000DDE90012031D3B600068C0E900120CE0D6
:1018700002A8694608F0FEFE1598C00705D1386831
:10188000029A011D3960006802604046F0E60000DF
:1018900002FCFFFF0000F07F0000F03F2DE9FF4F4A
:1018A00092461D4685B04FF00041DDE9124BDDE95F
:1018B00014727F1E01EA4B50414940F0FF4940EA53
:1018C0000108002122F020004928049102D04E286E
:1018D00028D04CE03BA0012607C88DE80700A96985
:1018E0000698641C88477F1E014606D41DF8060032
:1018F00018B121F0200181420BD0E9690698884790
:10190000032E34D0082E32D06FF0010009B0BDE8AC
:10191000F08F761C032E01D0082EE0D1601CCAF88F
:101920000000DCE7A9690698641C88477F1E2AD45A
:1019300020F02000412826D1A9690698641C884718
:101940007F1E20D420F020004E281CD1A9690698C3
:10195000641C88477F1E48F4002849F48009CAF8AF
:10196000004001D4282806D0E969069888475FEA34
:10197000CB7012D022E0A9690698641C88477F1EAC
:1019800001D4002803DAE96906988847BCE72928CA
:10199000F1D1641CCAF80040E9E71BF0240F07D01E
:1019A00028680499031D2B600068C0E9001805E051
:1019B0002868021D2A600068C0F800902046A5E74C
:1019C0000000F07F494E46494E495459000000003E
:1019D000B0B5482000F0E6F800F040F840F60C7092
:1019E000C2F2000002F01CFD40F69C70C2F2000042
:1019F000016840F2EC24CA68C2F2000442F010020E
:101A0000CA602146152203F0F3FB002040F2903516
:101A1000C4F24840C2F200050021A063D5F81805C1
:101A2000CCF24841E16309F0C1FF6064284603F04D
:101A300015FF40F65474C2F2000440F63841C2F279
:101A4000000120464FF4807203F0D2FB2068C16889
:101A500041F01001C160B0BDFEE7000010B58AB0D2
:101A60000E2040F63854099001200021C2F20004F3
:101A70000890CDE90610CDE90011CDE90211CDE9BC
:101A800004116946204600F0DFFF204601F01CFBF0
:101A90002046022100F0C0FF0AB010BD40F6A4505D
:101AA000C2F2000001F0CABB40F66050C2F2000072
:101AB00001F0C4BB40F6E850C2F2000001F0BEBB2A
:101AC00040F62C60C2F2000001F0B8BB2DE9F047EF
:101AD00082B041F20400CEF20000016840F2583AB0
:101AE00000910068C2F2000A01900199DAE903024C
:101AF000002791423CBF0130CAF80C000199002335
:101B0000CAF81010009E4FF0FF31E0FB0167DAE9E0
:101B10000049DAF80880304639462246CAE90667A5
:101B2000FEF780FB0546A0FB040201FB0421341AEA
:101B300067EB0106204631464A460023CAF820508A
:101B4000FEF770FB87B2AAF8240007FB09F0201A01
:101B500066F1000142460023FEF764FB0446AAF842
:101B60002600284609F03AFF0546384609F036FFB8
:101B700041F26F21C3F6832109F0ACFF294609F039
:101B800065FD0546A0B209F029FF43F2BD71C3F21D
:101B9000865109F09FFF294609F058FD02B0BDE8C3
:101BA000F087000010B54EF6FC5CCEF2000CDCF8BD
:101BB000002044F24023C0F20F0342F080725843E9
:101BC00044F6D353CCF8002041F20002C1F2620384
:101BD000CEF200024FF0000CA0FB033EC2F804C09E
:101BE0004DF683611368C4F21B31A0FB011443F06E
:101BF0000101116040F25831C2F200014FEA9E1219
:101C0000A30C81E80D1010BD70470000EFF31080A9
:101C100072B600BFFEE700002DE9F04FA7B0002923
:101C200000F0F28607AE0C46054606F1010806F103
:101C3000020A4FF0000B0FF6D4474FF000090021C5
:101C40000AE000BF7E299ABF70540131002109F1DA
:101C50000109A14500F0D88615F809000D28F6D035
:101C60000A28EFD1002070549DF81C000021242880
:101C7000EDD1404639460522FEF72CFCB0B3404674
:101C80000FF690410522FEF725FC002840F0B683B0
:101C900000222421504600BF2C2910F8011C08BF47
:101CA0000132002900F08080052A00F27D802C2975
:101CB000017808BF0132002977D0052A75D82C2970
:101CC000417808BF0132002900F09E80052A00F209
:101CD0009B802C29817808BF013200F1040009B1F2
:101CE000062AD9D30238062A62D087E300222421AB
:101CF000504600BF2C2910F8011C08BF0132E9B181
:101D0000012A1BD82C29017808BF0132B9B1012A58
:101D100015D82C29417808BF0132002940D0012A6A
:101D20003ED82C29817808BF013200F1040009B1A6
:101D3000022ADFD30238022A04D0A9E00138022A9D
:101D400040F0A680002219B32A2921D02C291FD0C7
:101D500081184B78002B5BD02A2B59D02C2B57D0D5
:101D60008B78002B00F08E802A2B00F08B802C2BA0
:101D700000F08880CB78002B00F092802A2B00F0B6
:101D80008F802C2B00F08C80097904320029DBD164
:101D9000811881F800B0007841283FD078E000BF7A
:101DA0000130022ACED073E00138062A40F02683A3
:101DB000002231B32A2924D02C2922D081184B7833
:101DC000002B00F0A9802A2B00F0A6802C2B00F01D
:101DD000A3808B78002B00F0A1802A2B00F09E803E
:101DE0002C2B00F09B80CB78002B00F099802A2BC5
:101DF00000F096802C2B00F09380097904320029A2
:101E0000D8D102448DE000BF0130062AD0D0F5E2DF
:101E1000013181F800B00078412839D140F61040F6
:101E2000C2F20000012101709DF81CC0BCF1000F3E
:101E300000F0E4825046614610F8012C002A18BFD9
:101E40002C2935D0A2F12C030178B3FA83F30029B1
:101E50004FEA531318BF2C2A30D04778002F18BFF1
:101E60002C2900F0A58081780430002918BF2C2F80
:101E7000E2D1A7F12C02B2FA82F25309023803BB75
:101E80009FE000BF023181F800B000784128C5D042
:101E900040F610400021C2F200000170D7E600BFFA
:101EA000033181F800B000784128B7D0F0E700BFD7
:101EB0002C39B1FA81F14B0901381146002B00F0A1
:101EC0008080002331B32A2924D02C2922D0C218A3
:101ED0005178002900F00E812A2900F00B812C296D
:101EE00000F008819178002900F03C812A2900F057
:101EF00039812C2900F03681D178002900F0348115
:101F00002A2900F031812C2900F02E811179043327
:101F10000029D8D1C11828E14A1C02E08A1C00E03F
:101F2000CA1C002111700278002A3FF490AEFEF71F
:101F300098FA002800F062829DF81C1081B30023FB
:101F400050460A462C2A10F8012C08BF0133002AFB
:101F500000F0D280062B00F2CF802C2A027808BF36
:101F60000133002A00F0C980062B00F2C6802C2A1B
:101F7000427808BF0133002A00F0EC80062B00F203
:101F8000E9802C2A827808BF013300F104000AB1ED
:101F9000072BD7D30238072B00F0B180DDE000BF5C
:101FA00040F610410020C2F2000181F820007CE3DD
:101FB0002C39B1FA81F14B0901303946002B7FF4FD
:101FC00080AF0020BCF1000FCDF8108000F0D7806A
:101FD0000023D346624600BF2C2A1BF8012C08BF01
:101FE00001330AB3022B1FD82C2A9BF8002008BF0C
:101FF0000133DAB1022B19D82C2A9BF8012008BF33
:102000000133002A40D0022B3ED82C2A9BF8022014
:1020100008BF01330BF1040B0AB1032BDCD3ABF186
:10202000020B032B04D033E0ABF1010B032B2FD1B8
:1020300000213AB32A2A25D02C2A23D00BEB010207
:102040005378002B00F00A812A2B00F007812C2BFB
:1020500000F004819378002B00F002812A2B00F01D
:10206000FF802C2B00F0FC80D378002B00F0FA804E
:102070002A2B00F0F7802C2B00F0F4801279043129
:10208000002AD7D15944EEE00BF1010B032BCFD03E
:102090004FF0000BBCF1000F00F0ED800023D046A4
:1020A000624600BF2C2A18F8012C08BF0133002A11
:1020B0006CD0032B6AD82C2A98F8002008BF013373
:1020C000002A69D0032B67D82C2A98F8012008BF72
:1020D0000133002A5ED0032B5CD82C2A98F802200A
:1020E00008BF013308F104080AB1042BDAD3A8F1C0
:1020F000020851E0511C38E00138072B2DD1002196
:1021000032B32A2A24D02C2A22D042185378002B0A
:1021100000F008822A2B00F005822C2B00F00282AE
:102120009378002B00F032822A2B00F02F822C2B88
:1021300000F02C82D378002B00F02A822A2B00F0AA
:1021400027822C2B00F0248212790431002AD8D166
:1021500001441EE20130072BD1D00020002940F0BD
:102160001E8265E2911C00E0D11C81F800B09DF850
:102170001CC0BCF1000FCDF810807FF429AF002106
:102180000391002105914FF0000B78E0A8F10108C0
:1021900002E000BF08F10108042B2BD100213AB363
:1021A0002A2A25D02C2A23D008EB01025378002BB1
:1021B00000F048822A2B00F045822C2B00F042824E
:1021C0009378002B00F040822A2B00F03D822C2BCC
:1021D00000F03A82D378002B00F038822A2B00F0EE
:1021E00035822C2B00F0328212790431002AD7D1AB
:1021F00041442CE24FF00008BCF1000F00F02F82A8
:1022000000235646624600BF2C2A16F8012C08BF50
:102210000133002A00F08881042B00F285812C2AEA
:10222000327808BF0133002A00F08181042B00F2CC
:102230007E812C2A727808BF0133002A00F0768153
:10224000042B00F273812C2AB27808BF013306F107
:1022500004060AB1052BD7D3023E68E1511C02E007
:10226000911C00E0D11C00220A709DF81CC0BCF13A
:10227000000F7FF413AF00210391002105914FF06F
:10228000000800264FF0000E00270028CDF818E0C7
:1022900046D00178002943D0019608F017FB48F694
:1022A00000030022C4F2C3030646CDF808A08A4604
:1022B00008F066FD08F0FAFE40F61041C2F2000197
:1022C000487030465146DDF808A008F0EFFE48F6A9
:1022D000AD31C6F6DB0180FB0112110B01EBD271AF
:1022E00042F2107201FB120148F21F52C5F2EB12CA
:1022F00080FB022309B241F27B425143CA0C02EB3C
:10230000D1715A0902EBD3726423DDF818E0019E03
:1023100002FB130040F61042C2F200029170D0702E
:102320007FB3387868B33846FEF7A8F848F6AD3181
:10233000C6F6DB0180FB011248F21F51C5F2EB111A
:1023400080FB0113111301EBD27142F2107201FBF9
:10235000120240F61047C2F20007DDF818E03971AA
:1023600011B241F27B425143CA0C02EBD1715A09BE
:1023700002EBD372642302FB1300797100F5FA605B
:10238000F88040F61047BBF1000FC2F2000718BFFB
:10239000B8F1000F36D10598002818BF002E7BD168
:1023A000039880B1017871B108F090FA4AF2CA132B
:1023B0004FF04042C3F6FD7308F0FAFE08F0F2FB5E
:1023C000DDF818E0B861DDF81080BEF1000F07AE4F
:1023D0004FF0000B0FF2386710D09EF8000068B184
:1023E000704608F073FA08F0DDFB40F61041C2F2C7
:1023F0000001C8610021FFF72ABC00BF0021FFF7E0
:1024000026BC00BF9BF800000028C4D058460196A7
:1024100008F05CFA00230022C4F25903CDF808A0AA
:1024200082460F4608F0ACFC08F040FE06466420E9
:10243000704308F06AFE02460B465046394608F0E3
:10244000EBFF074630468A4608F05FFE002306464B
:102450008B46384640F610475146DDF808A000226A
:10246000C4F24E03C2F2000708F08AFC32465B4613
:1024700008F0CAFBDDF818E0019EC7E9020198F8F0
:10248000000053287FF487AFD7E9020181F00041B3
:10249000C7E902017FE700BF307800283FF480AF32
:1024A000304608F013FA00230022C4F25903804694
:1024B0000F4608F065FC08F0F9FD064664207043FD
:1024C00008F023FE02460B464046394608F0A4FFBA
:1024D00007463046884608F018FE00230646D346D5
:1024E0008A46384640F6104741460022C4F24E0361
:1024F000C2F2000708F044FC32465346DA4608F0C0
:1025000083FBDDF818E0C7E9040105980078572837
:102510007FF446AFD7E9040181F00041C7E9040127
:102520003EE700BF511C34E0013E00E00136052BC0
:102530002AD1002132B32A2A24D02C2A22D0721880
:102540005378002B00F0B6802A2B00F0B3802C2BA0
:1025500000F0B0809378002B00F0AE802A2B00F0C2
:10256000AB802C2B00F0A880D378002B00F0A68045
:102570002A2B00F0A3802C2B00F0A08012790431CC
:10258000002AD8D131449AE000269CE0911C00E05A
:10259000D11C81F800B09DF81C10002948D0002201
:1025A000574600BF2C2917F8011C08BF0132D9B1CA
:1025B000082A19D82C29397808BF0132B9B1082A5C
:1025C00015D82C29797808BF013279B1082A0DD89D
:1025D0002C29B97808BF013207F1040709B1092A8B
:1025E000E0D3023F03E000BF013F00E00137092ACA
:1025F0001ED10022D1B12A2918D02C2916D0B91801
:102600004B788BB32A2B2FD02C2B2DD08B786BB300
:102610002A2B2BD02C2B29D0CB784BB32A2B27D08D
:102620002C2B25D0097904320029E4D1B91820E0F7
:10263000002710B3017800290CBF0020FDF711FF1F
:102640001CE000BF511C02E0911C00E0D11C0022E4
:102650000A709DF81CC0BCF1000F7FF4D1AD0021C1
:102660000391002105910CE6013102E0023100E006
:10267000033181F800B00028DCD1002040F6104181
:10268000C2F2000181F8200047B1387830B13846F5
:1026900008F01CF908F086FA01E000BF002040F6BF
:1026A00010410FF26C37C2F2000148620021FFF7BF
:1026B000CEBA00BF511C02E0911C00E0D11C0022E8
:1026C0000A709DF81CC0BCF1000F25D000235746AE
:1026D000624600BF2C2A17F8012C08BF01330AB349
:1026E000052B1FD82C2A3A7808BF0133EAB1052BF5
:1026F0001BD82C2A7A7808BF0133AAB1052B13D82E
:102700002C2ABA7808BF013307F104070AB1062B57
:10271000E0D3023F09E000BF0021039100210591B1
:10272000B0E500BF013F00E00137062B1ED10021BC
:10273000D2B12A2A18D02C2A16D07A185378BBB1D5
:102740002A2B15D02C2B13D093789BB12A2B11D088
:102750002C2B0FD0D3787BB12A2B0DD02C2B0BD068
:1027600012790431002AE4D1394406E0002708E058
:10277000511C02E0911C00E0D11C00220A709DF85F
:102780001CC0BCF1000F059728D00023D646624636
:102790002C2A1EF8012C08BF01331AB3062B21D8AE
:1027A0002C2A9EF8002008BF01330AB3062B1FD83D
:1027B0002C2A9EF8012008BF0133BAB1062B15D888
:1027C0002C2A9EF8022008BF01330EF1040E0AB134
:1027D000072BDDD3AEF1020E0AE000BF002103910A
:1027E00050E500BFAEF1010E02E000BF0EF1010E98
:1027F000072B1FD10021DAB12A2A19D02C2A17D091
:102800000EEB01025378CBB12A2B17D02C2B15D00D
:102810009378ABB12A2B13D02C2B11D0D3788BB15A
:102820002A2B0FD02C2B0DD012790431002AE3D1A2
:10283000714408E04FF0000E09E000BF511C02E0B7
:10284000911C00E0D11C00220A709DF81CC0BCF154
:10285000000FCDF80CE03FF415AD0023D6466246DC
:102860002C2A1EF8012C08BF0133FAB1072B1DD802
:102870002C2A9EF8002008BF0133EAB1072B1BD891
:102880002C2A9EF8012008BF01339AB1072B11D8DA
:102890002C2A9EF8022008BF01330EF1040E0AB163
:1028A000082BDDD3AEF1020E06E000BFAEF1010E43
:1028B00002E000BF0EF1010E082B1FD10021DAB19A
:1028C0002A2A19D02C2A17D00EEB01025378CBB14B
:1028D0002A2B17D02C2B15D09378ABB12A2B13D0E1
:1028E0002C2B11D0D378CBB12A2B17D02C2B15D071
:1028F00012790431002AE3D1714410E04FF0000E48
:1029000011E000BF511C0AE0911C08E04750524DF5
:10291000430000004750474741000000D11C0022FF
:102920000A709DF81CC0BCF1000F3FF4ADAC002252
:102930005746BCF12C0F17F801CC08BF0132BCF18F
:10294000000F27D0082A25D8BCF12C0F97F800C01B
:1029500008BF0132BCF1000F1FD0082A1DD8BCF1FE
:102960002C0F97F801C008BF0132BCF1000F13D043
:10297000082A11D8BCF12C0F97F802C008BF013209
:10298000BCF1000F07F1040701D0092AD1D3023F9F
:1029900003E000BF013F00E00137092A7FF474AC77
:1029A0000022BCF1000F1ED0BCF12A0F1BD0BCF1DD
:1029B0002C0F18D0B9184B78C3B12A2B16D02C2B5A
:1029C00014D08B78A3B12A2B12D02C2B10D0CB781B
:1029D00083B12A2B0ED02C2B0CD091F804C00432DA
:1029E000BCF1000FE0D1B91805E000BF013102E0F1
:1029F000023100E0033100220A700028CDF818E00F
:102A00007FF447ACFFF78CBC27B0BDE8F08F00BF68
:102A10004750524D4300000090F82020013A012A0F
:102A200008D8006800F114020020136819431160EF
:102A3000704700BF00F1240201204FF48021136889
:102A40001943116070470000B0B5026890F820305B
:102A5000013B012B28D8D2F80002012340F00100ED
:102A6000C2F80002D1F814E0CC690EF01F0003FA9E
:102A700000F0D2F81C326FEA000C8343012CC2F83C
:102A80001C3217D06CBBD2F80C3203EA0C03C2F82C
:102A90000C32CB688C8844EA034302EBCE04C4F8C2
:102AA00040320B4615E000BF416A41F4802141628B
:102AB0000120B0BDD2F80C320343C2F80C320B68CF
:102AC0008C8844EA034302EBCE04C4F8403201F19F
:102AD0000C038C681B8843EA044302EBCE04C4F861
:102AE0004432D2F804328D6943EA0004D1F810E090
:102AF000096A002D08BF03EA0C04C2F80442D2F8A8
:102B00001432BEF1000F43EA000408BF03EA0C04CC
:102B10000129C2F8144204D1D2F81C120843C2F8A9
:102B20001C02D2F8000220F00100C2F800020020CE
:102B3000B0BD00007047000010B590F82040013C87
:102B4000012C7BD8D0F800C0002900F08180DCF88F
:102B50001040A40700F081800CEB011CDCF8B041B0
:102B60000CF5D87E14F004049460DCF8B04119BF71
:102B7000E4085460640D1460DEF800400CF5DA7E61
:102B800004F00204D460DCF8B44124075ABFDEF834
:102B9000004004F00F0408241461DEF8004000290E
:102BA000C4F307249461DEF800404FEA14445461F2
:102BB000DCF8B8211A70026802EB0112D2F8B821D1
:102BC0004FEA12225A70026802EB0112D2F8B821C1
:102BD0004FEA12429A70026802EB0112D2F8B82151
:102BE0004FEA1262DA70026802EB0112D2F8BC21DD
:102BF0001A71026802EB0112D2F8BC214FEA1222CC
:102C00005A71026802EB0112D2F8BC214FEA12425B
:102C10009A71026802EB0112D2F8BC214FEA1262EB
:102C2000DA71006814BF00F1100100F10C010020FE
:102C300020220B681A430A6010BD00BF00F1240176
:102C400001204FF480220B681A430A6010BD00BFB8
:102C5000DCF80C40A4077FF47FAF00F124010120D1
:102C60004FF400120B681A430A6010BD2DE9F04FB3
:102C700081B0044600684669D0F804908768D0F8AF
:102C80000CB0D0F810A0D0F81880F10704D10025BE
:102C900030071DD424E000BFF90710D00121BA0786
:102CA000816009D4780700F1AF80380700F1B68061
:102CB000204600F037FA02E0204600F035FA002501
:102CC000F80500F18780F80300F1B180300707D5DF
:102CD0001BF0100004D0206845F400751021C1607D
:102CE000700708D51BF0080005D020680821C160D6
:102CF000204600F0B3F9B00706D52068C068800709
:102D000002D0204600F0ACF9700607D51AF010008A
:102D100004D0206845F4806510210161B00608D513
:102D20001AF0080005D0206808210161204600F053
:102D3000C5F9F00606D520680069800702D0204654
:102D400000F0BEF9B00308D519F0100005D02068D6
:102D500010214160204600F0B5F9F00308D519F0C4
:102D6000080005D0206808214160204600F0E6F9FF
:102D7000300440F19B805FEA497040F1948006F492
:102D8000807008EA102028435FEA8871014648BF36
:102D900041F00201B20558BF01465FEA48700D4696
:102DA00048BF45F00405700558BF0D46300540F199
:102DB0007A8018F0700000F076801038000905283D
:102DC0006CD8DFE800F003595D61656945F00805DE
:102DD00064E000BF20684FF48071BA0581600BD4B5
:102DE000780515D438051DD4204600F09FF9F80366
:102DF0007FF56CAF1BE000BF204600F099F9F803A7
:102E00007FF564AF13E000BF4FF4006558E700BFE3
:102E100005F50055F8037FF559AF08E04FF48055EC
:102E20004EE700BF05F58045F8037FF54FAF2068FA
:102E30004FF48031BA0381600AD4780310D4380388
:102E400014D4204600F076F930073FF541AF47E74C
:102E5000204600F071F930073FF53AAF40E700BF78
:102E600005F5004530073FF533AF39E705F5803507
:102E700030073FF52DAF33E745F010050EE000BFFA
:102E800045F020050AE000BF45F0400506E000BF20
:102E900045F0800502E000BF45F480752068816937
:102EA00021F07001816120680421416055B1606AA0
:102EB00040EA05012046616201B0BDE8F04FFFF72E
:102EC00039BE00BF01B0BDE8F08F0000B0B5C8B199
:102ED000044690F8200010B9204600F071F82068F0
:102EE000016841F00101016000F028FC054600BFC7
:102EF00020684168C90707D100F020FC401B0B285F
:102F0000F6D312E00120B0BD016821F0020101609A
:102F100000F014FC054600BF2068416889070DD504
:102F200000F00CFC401B0B28F6D3606A052140F42E
:102F300000306062012084F82010B0BD217E02685C
:102F4000012922F0800208BF80320260617E02689F
:102F5000012922F0400208BF40320260A17E0268CF
:102F6000012922F0200208BF20320260E17E0268BF
:102F7000012922F0100218BF10320260217F02687E
:102F8000012922F0080208BF08320260617F02684E
:102F9000012922F0040208BF04320260D4E901C210
:102FA000D4E9033561691A432A431143ACF10102A4
:102FB0001143C16100200121606284F82010B0BD7E
:102FC000B0B586B040F60004C4F201040068A4F570
:102FD000244200219042059102D006B0B0BD00BF4E
:102FE00041F21800C4F20200426802AD42F00072E1
:102FF0004260426802F000720192019A026842F057
:1030000004020260006800F00400019001984FF48F
:103010000060CDE90201012004902046294600F01D
:103020006FFA4FF480500290022003900320059025
:103030002046294600F064FA13200521002200F002
:10304000CFFD132000F0BCFD14200521002200F06C
:10305000C7FD142000F0B4FD06B0B0BD70470000FD
:1030600010B58AB003AA01AB00210446FFF764FD46
:10307000206846F20041C4F20001884202D00AB042
:1030800010BD00BF039940F20520814240F290300C
:10309000C2F2000006D040F206229142EFD100F5C4
:1030A000C86401E000F5A06401A9204602F0E0FD3B
:1030B000204602F0F1FD0AB010BD0000704700008C
:1030C0007047000070470000B0B5044690F820003B
:1030D00001281DD1022084F820002068016821F019
:1030E0000101016000F02AFB054600BF206840682E
:1030F000C00713D000F022FB401B0B28F6D3606AF8
:1031000040F400306062052084F820000120B0BD4A
:10311000606A40F4002060620120B0BD002060625F
:10312000B0BD00007047000070470000704700000D
:1031300070470000704700007047000070470000B3
:10314000014690F82100022816D10868D1E90FC382
:10315000026822F00E020260026822F001020260A0
:10316000012000FA03F2CCF8042081F821000020AD
:10317000002281F82020704704208863012000226B
:1031800081F820207047000080B590F821100229B6
:1031900024D10268116821F00E0111602F211368FB
:1031A000C4F202018A4240F20401C4F2020123F097
:1031B0000103136016DD3023C4F202039A421DD0CE
:1031C0004423C4F202039A421CD05823C4F20203DF
:1031D0009A421DD14FF4803322E000BF0421816365
:1031E000012080BD0823C4F202039A420ED01C23A2
:1031F000C4F202039A420BD1102311E04FF4807302
:103200000EE000BF4FF480530AE000BF012307E047
:1032100001F1680C4FF08073624508BF4FF48013D2
:103220000B60012180F82110426B002180F82010F2
:103230000AB190470021084680BD000010B5D0E9D2
:103240000FCE0168DCF800300A6823FA0EF35C0741
:103250002AD512F0040427D00A68920603D40A681B
:1032600022F004020A602F22C4F20202914240F2CC
:103270000402C4F202025BDD3023C4F2020399426D
:1032800072D04423C4F20203994273D05823C4F28B
:103290000203994240F07A804FF480231360C16AA0
:1032A000002940F098806FE09C0727D512F00204B7
:1032B00024D00A68920606D40A6822F00A020A603C
:1032C000012280F821202F22C4F20202914240F212
:1032D0000402C4F202023BDD3023C4F2020399422D
:1032E00060D04423C4F2020399425FD05823C4F251
:1032F0000203994260D14FF4003365E01B0743D5C8
:1033000012F0080208BF10BD0A6822F00E020A601F
:10331000012101FA0EF2CCF80420816380F821101B
:10332000016B0022002980F8202054D12CE000BF3E
:103330000823C4F20203994222D01C23C4F20203E0
:10334000994223D140231360C16A002943D11BE075
:103350000823C4F2020399422CD01C23C4F20203B6
:10336000994229D120232FE04FF480631360C16A72
:1033700089BB09E04FF480431360C16A59BB03E085
:1033800004231360C16A31BB10BD00BF02F16804A1
:103390004FF08063A14208BF4FF480031360C16AFD
:1033A000C9B9F1E74FF400730EE000BF4FF40053CA
:1033B0000AE000BF022307E002F168044FF0007347
:1033C000A14208BF4FF400131360816A0022002954
:1033D00080F82020D8D0BDE81040084701460028DA
:1033E0004FF0010008BF70472DE9F043D1F800C04D
:1033F0004FF6F873CBF6FD734CF6CD426344CCF632
:10340000CC42A3FB02236FF0030707EA93030027D4
:10341000C4F2020701F10C09C1E90F730223D1E9DB
:10342000012E99E87002D1F81C8081F82130DCF877
:10343000003043F6F077BB431A4342EA0E022243C0
:103440002A43324342EA090242EA0802CCF8002049
:1034500000228A6381F8210081F820200020BDE845
:10346000F0437047F0B590F820C0BCF1010F32D0A6
:103470004FF0010E80F820E090F821C0BCF1010F60
:1034800026D14FF0020C80F821C04FF0000CC0F89C
:1034900038C0D0E900C4C56AC66BDCF80070102CD7
:1034A00027F00107CCF80070006C0EFA00F0706095
:1034B0000846CCF8043004BF10460A46CCF8080091
:1034C000CCF80C20DCF8000045B140F00E000DE017
:1034D000002180F820100220F0BD00BF20F0040081
:1034E000CCF80000DCF8000040F00A00CCF8000046
:1034F000DCF8000040F00100CCF800000020F0BD36
:103500002DE9F04F82B041F20042C4F201020E6890
:103510000423904208BF0323002E009300F0F6809E
:1035200040F2004C4FF6FF7E0022C4F2010C012451
:10353000C1F2100E4FF0000A4FF0000947E000BF43
:10354000012502F00C040F27A7402BEA070705FA14
:1035500004F43C4343F82640D1F804B040F20C4553
:103560005FEACB23DCF8083054BF23EA080343EAC0
:103570000803C4F20105CCF808302B685FEA8B24FD
:1035800054BF23EA080343EA08032B605FEA8B3445
:10359000DCF8043054BF23EA080343EA08035FEA77
:1035A000CB34CCF80430DCF800304FF0010454BFC9
:1035B00023EA080343EA0803CCF800300E680AF156
:1035C000010A36FA0AF302F1040200F09F8004FABD
:1035D0000AF816EA080FF1D04B68734512DC122B7B
:1035E00056D8DFE803F0350B454955555555555527
:1035F000555555555555554D510000BFD1F80C90B6
:1036000046E000BF4FF6FF75C1F22105AB420FDC6B
:103610000025C1F21105AB421AD00025C1F21205F6
:10362000AB4215D00025C1F22105AB4210D02FE0EE
:103630000025C1F22205AB420AD00025C1F23105B6
:10364000AB4205D00025C1F23205AB4220D100BF0C
:103650008B684BB1012B14BFC0F81480C0F81080E8
:103660004FF0080914E000BF4FF0040910E000BF5C
:10367000CB6803F108090BE04FF0000908E000BF38
:10368000CB6803F1040903E0CB6803F10C0900BF28
:1036900013460546BAF1080F24BF203B04352E68B7
:1036A0000F279F40BE4309FA03F333432B60CB79C6
:1036B000DB067FF583AF41F21804C4F202042368ED
:1036C0004FEA9A0643F001032360236840F60004A2
:1036D00003F001030193019BACF57E7353F826B010
:1036E000C4F20104A0420FD040F60044C4F2010429
:1036F000A0423FF425AF41F20004C4F20104009D52
:10370000A04208BF02251CE700251AE702B0BDE869
:10371000F08F00008068084018BF0120704700004B
:10372000C26802EA0103914341EA03410161704723
:10373000002A08BF090401617047000041F63050BB
:10374000C2F200000068704770B5B8B3044690F844
:103750003D0028B9002084F83C00204600F05CF9C8
:10376000242084F83D002068016821F001010160F7
:10377000016841F400410160016821F400410160E9
:1037800000F06CFB48F28041C0F21E0140F60013CD
:10379000D4F804E088424FF00001C0F23D0348F243
:1037A000A16C4FF0000238BF01219842C0F2010C19
:1037B00038BF0122E64538BF0A460AB1012070BD74
:1037C0004DF68361C4F21B31A0FB01122168950CF8
:1037D0004B684FF4967623F03F0343EA92437543D8
:1037E00044F6D3564B60C1F262060B6AA5FB06563F
:1037F000B50923F03F03E64538BF950C6A1C1A4310
:103800000A62CA6948F2A0664CF6FF73C0F201066C
:10381000B64522EA03020BD801384FEA4E03B0FB4B
:10382000F3F001306FF31F30042898BF04201EE02E
:10383000A368013863B119230EFB03F3B0FBF3F067
:1038400001306FF31F3078B100F5804008E000BF11
:103850000EEB4E03B0FBF3F001306FF31F3028B1D5
:1038600000F5004003E000BF012000E0012010430C
:10387000C8610868D4E9072320F0C000104318434A
:103880000860886848F2FF3204F10C0690434CCE81
:1038900018431043A5698860C86820F0FF003043D2
:1038A0002843C860086840F001000860002020211B
:1038B000206484F83D10206384F83E0070BD000051
:1038C0002DE9F04383B0994616460F460446FFF7AC
:1038D00035FF94F83D10202920D10546206800BF0F
:1038E0008169890716D5FFF729FF411B20681A292E
:1038F000F6D381698907F3D500202021206384F85D
:103900003D1084F83E00216C41F02001216484F8D0
:103910003C0003E094F83C10012903D1022003B0DD
:10392000BDE8F083012284F83C200368DDE90B1830
:103930000A9ADB0703D1036843F0010303600368BD
:1039400023F400630360212084F83D00402084F8C4
:103950003E000020206462626185608D39462085CA
:103960000020CFF6FF70E062204632464B46CDF88D
:103970000080019501F0F4FC20B1012003B0BDE806
:10398000F08300BF208D98B9204641462A4601F0B9
:103990004BFD88B3206C0428EFD12068016841F406
:1039A00000710160012003B0BDE8F0830004EBD09A
:1039B000204641462A4601F0F1FE0028EAD1616A1C
:1039C0002268084610F8013B1361238D6062581E7F
:1039D0002085678D013F678557697F07E6D5070416
:1039E000E4D048781061881C6062981E2085618D43
:1039F00001396185DAE700BF2068016841F4007190
:103A00000160202084F83D00002084F83E0084F806
:103A10003C0003B0BDE8F08310B586B045F200412C
:103A20000068C4F2000100228842049202D006B06D
:103A300010BD00BF41F21804C4F20204206840F037
:103A400008002060206800F0080001900198C02064
:103A50000290122003900320059001F5384002A93E
:103A6000FFF74EFD606840F400106060606800F48D
:103A700000100190019806B010BD000040F2000057
:103A800041F63051C2F20000C2F2000100780A682B
:103A9000104408607047000080B542F20000C4F294
:103AA0000200016841F010010160032000F0C4F839
:103AB0000F2000F005F800F05BF8002080BD00004A
:103AC000B0B586B041F21801C4F202010A6804469A
:103AD00042F400620A60096801A801F400610191E2
:103AE0000199694600F098F900F0CCF94DF6836130
:103AF000C4F21B31A0FB01014FF0FF3000EB9141FC
:103B000040F6C46042F60042C2F20000C4F2010274
:103B100040F2E7330025C0E90021C0E90253056106
:103B2000856100F0DFFB054610B1284606B0B0BD48
:103B300040F6C460C2F2000000F072FC05460028A6
:103B4000F3D1192000F03CF80F2C0DD81920214694
:103B50000022002500F044F840F20400C2F2000008
:103B60000460284606B0B0BD0125284606B0B0BDA9
:103B700080B582B041F21800C4F202000168002250
:103B800041F001010160016801F001010191019919
:103B9000416841F08051416040680F2100F0805041
:103BA000009000986FF0010000F01AF80420C4F2B1
:103BB00001000168022262F31A61016002B080BD57
:103BC000002848BF704700F01F01012202FA01F1EE
:103BD0004EF200124009CEF2000242F82010704767
:103BE00010B54EF60C5CCEF2000CDCF80030C3F3DE
:103BF000022E8EF00704042C28BF0424BEF1030318
:103C00004FF0FF3E0EFA04F438BF0023A143994061
:103C10000EFA03F39A43114300F00F02043A624490
:103C200009010C3200F16043B0F1FF3FC8BF03F55A
:103C30006442117010BD00004EF60C51CEF200012E
:103C40000A684FF6FF031A4060F30A2242F08060D0
:103C500040F0FD70086070472DE9F04381B0002806
:103C600000F0858042F20008C4F202080446D8F849
:103C700000000D4600F0070088420CD2D8F8000082
:103C800020F007002843C8F80000D8F8000000F032
:103C90000700A8426BD1206841F204098107C4F2F1
:103CA000020917D5410705D5D9F8001041F4E061A4
:103CB000C9F80010010705D5D9F8001041F460518A
:103CC000C9F80010D9F80010A26821F0F0011143E2
:103CD000C9F80010C00741D1D8F8000000F0070073
:103CE000A8420CD9D8F8000020F007002843C8F8F3
:103CF0000000D8F8000000F00700A84237D1206883
:103D0000410707D5D9F80010E26821F4E0611143BA
:103D1000C9F80010000708D5D9F80000216920F47F
:103D2000605040EAC100C9F80000D9F8002002F054
:103D30000C00082841F20020C0F27A0050D14CF665
:103D40003613C2F38341C0F60003595CD2033BD45F
:103D500040F60010C0F23D00484341E06068022890
:103D60000AD001282AD159F8041C890308D401205B
:103D700001B0BDE8F08300BF59F8041C8901F6D5F5
:103D8000D9F8001021F003010843C9F80000FFF73B
:103D9000D5FC064641F28837D9F80000616800F08A
:103DA0000C00B0EB810F97D0FFF7C8FC801BB84226
:103DB000F2D9032001B0BDE8F08300BF59F8041C1C
:103DC0008907D4D5DCE700BFD9F800204CF674038E
:103DD000C2F34042C0F600039A5C4843B0FBF2F0E5
:103DE000D9F800104CF25402C1F30311C0F60002DE
:103DF000515C40F2B40220FA01F140F20400C2F238
:103E000000000068C2F200021160FFF759FE0020B6
:103E100001B0BDE8F08300000F22026041F204020D
:103E2000C4F20202136803F003034360136803F053
:103E3000F0038360136803F4E063C36012684FF417
:103E4000E06303EAD202026142F20000C4F202001F
:103E5000006800F0070008607047000040F2B400FE
:103E600041F20401C2F20000C4F2020100680968D4
:103E70004CF26402C1F30221C0F60002515CC8405A
:103E80007047000040F2B40041F20401C2F20000A9
:103E9000C4F20201006809684CF26402C1F3C22155
:103EA000C0F60002515CC840704700002DE9F041A7
:103EB00082B0002868D00446007841F20006C007AE
:103EC000C4F2020625D0706800F00C0004281BD054
:103ED000706800F00C00082802D17068C00313D489
:103EE0006068002800F06881B0F5A02F00F07C81A8
:103EF000B0F5803F00F07C81306820F48030306085
:103F0000306820F4802076E13068800301D5606855
:103F1000D0B32078800718D5706810F00C0F07D048
:103F2000706800F00C0008286ED17068C0036BD474
:103F30003068800702D52069012825D13068616981
:103F400020F0F80040EAC1003060207800071FD45C
:103F50002078400732D4E56995B1706800F00C0014
:103F6000082840F08F80012D0ED07068216A00F47F
:103F700080328A4208D1616A00F47010884203D10D
:103F8000002002B0BDE8F081012002B0BDE8F08160
:103F9000A069002862D00020C4F242200121C0F8AC
:103FA0008014FFF7CBFB0546706A800700F18C8018
:103FB000FFF7C4FB401B0228F6D92AE1F06910F094
:103FC000805808D1F06940F08050F061F06900F04D
:103FD00080500090009847F20007C4F2000738684C
:103FE000C00529D4386840F480703860FFF7A6FB1C
:103FF000054600BF3868C0051ED4FFF79FFB401B75
:104000006428F7D905E100BF2069002840F20000CC
:10401000C4F2422000F0828001210160FFF78EFB94
:10402000054600BF306880073FF588AFFFF786FB85
:10403000401B0228F6D9ECE0E068002800F0808000
:10404000052800F09780012800F09880306A20F061
:1040500001003062306A20F0040092E00020C4F2D7
:1040600042200021C0F88014FFF768FB054600BF1E
:10407000706A80077FF56CAFFFF760FB401B02287A
:10408000F6D9C6E00027C4F2422700203866FFF7C1
:1040900055FB022D05460BD13068800140F1BE80F2
:1040A000FFF74CFB401B02284FF00300F4D968E7F0
:1040B000306880017FF564AFFFF740FB401B0228AA
:1040C0004FF00300F4D95CE740F2B400C2F2000004
:1040D000006844F6D351C1F26201A0FB0101480A15
:1040E000019000BF00BF0198411E002801913FF4DC
:1040F0002FAF00BF0198411E002801913FF428AF67
:1041000000BF0198411E002801913FF421AF00BF7C
:104110000198411E00280191E4D119E700210160B6
:10412000FFF70CFB054600BF306880077FF50DAF39
:10413000FFF704FB401B02284FF00300F4D920E7EF
:10414000306A20F001003062306A20F004003062F2
:10415000FFF7F4FA054641F2883700BF306A80075E
:1041600020D5FFF7EBFA401BB8424FF00300F5D91A
:1041700007E700BF306A40F004003062306A40F068
:1041800001003062FFF7DAFA054641F2883700BFD6
:10419000306A800706D4FFF7D1FA401BB842F7D93E
:1041A00037E000BFB8F1000F7FF4D5AEF06920F022
:1041B0008050F061CFE600BF306820F4803030607E
:1041C000306820F480203060FFF7B8FA054600BF61
:1041D000306880037FF59DAEFFF7B0FA401B64287E
:1041E0004FF00300F4D9CCE6306840F48020306012
:1041F000306840F480303060FFF7A0FA054600BF19
:10420000306880033FF585AEFFF798FA401B6428BD
:10421000F6D9032002B0BDE8F08100BF206AB0F5F6
:10422000803F05D17168A26821F4003111437160AB
:104230007168626A21F474111043084370600120B0
:104240003866FFF77BFA0446306880013FF598AE88
:10425000FFF774FA001B02284FF00300F4D990E630
:10426000704700007047000010B590F83C20012A0C
:104270004FF0020233D080F83D200268D2F804E00B
:10428000D2F808C00C682EF07003234340F2FF748C
:10429000C4F20004A24253600ADCB2F1804F13D092
:1042A00040F20043C4F200039A420DD011E000BF77
:1042B00042F60043C4F201039A4205D040F60003DF
:1042C000C4F200039A4204D149682CF080031943D8
:1042D00091600121002280F83D1080F83C201046BA
:1042E00010BD0000002804BF0120704710B504462F
:1042F00090F83D0028B9002084F83C00204600F0EA
:104300006FF8022084F83D00206840F2FF730268D5
:10431000C4F2000342F6004C9842C4F2010C15DCD2
:10432000B0F1804F1AD040F20041C4F2000188423F
:1043300014D0984218DCB0F1804F1DD040F20041FB
:10434000C4F20001884217D01AE000BF604505D0D2
:1043500040F60001C4F200018842EAD1A16822F0CF
:1043600070020A439842E6DD604505D040F6000140
:10437000C4F20001884203D1216922F440720A4349
:10438000A36922F08001D4F804E0E2681943604593
:104390000160C262C0F828E002D16169CCF8301037
:1043A000012141610269D20703D0026922F00102B2
:1043B0000261002084F8461084F83E1084F83F1013
:1043C00084F8401084F8411084F8421084F84310B7
:1043D00084F8441084F8451084F83D1010BD0000A6
:1043E00080B582B00068B0F1804F1CBF02B080BDC4
:1043F00041F21C00C4F202000168002241F00101F8
:1044000001600068062100F00100019001981C2065
:10441000FFF7E6FB1C2002B0BDE88040FFF7D0BBF1
:1044200090F83D1001291CBF01207047022180F83F
:104430003D10006840F2FF72C168C4F20002904271
:1044400041F00101C16009DCB0F1804F12D040F2AF
:104450000041C4F2000188420CD012E042F6004153
:10446000C4F20101884205D040F60001C4F2000107
:10447000884206D1816801F00701062904BF0020A7
:104480007047016841F001010160002070470000A1
:1044900080B590F83C20012A4FF0020200F0C28063
:1044A00080F83D20D0F800C04FF67772DCF8083075
:1044B00023EA0202CCF808200B684F2B28DC1F2BC4
:1044C00044DD202B45D0302B43D0402B40F0AC8036
:1044D000D1F804E0C968DCF82030DCF8202022F0B4
:1044E0000102CCF82020DCF8182022F0F00242EA89
:1044F000011123F00A0242EA0E02CCF81810CCF89F
:104500002020DCF8081041F0470121F0300180E064
:104510006F2B27DDB3F5005F48D0B3F5805F7AD00D
:10452000702B40F08180D1E901E3C968DCF80820F4
:1045300043EA0E0322F47F4243EA01211143CCF8FF
:104540000810DCF8081041F0770162E00BB1102B85
:104550006AD1DCF8081021F07001194341F007011D
:1045600057E000BF502B35D0602B5DD1D1F804E06F
:10457000C968DCF82030DCF8202022F01002CCF8EA
:104580002020DCF8182022F4704242EA013123F0A6
:10459000A00242EA0E12CCF81810CCF82020DCF869
:1045A000081041F0670121F0100132E0D1E901E388
:1045B000C968DCF8082043EA0E0322F47F4243EA8C
:1045C00001211143CCF80810DCF8081041F48041B7
:1045D0001FE000BFD1F804E0C968DCF82030DCF847
:1045E000202022F00102CCF82020DCF8182022F054
:1045F000F00242EA011123F00A0242EA0E02CCF86C
:104600001810CCF82020DCF8081041F0570121F0F8
:104610002001CCF808100022012180F83D10002173
:1046200080F83C10104680BD0122F5E7704700007D
:1046300070B504460068C5680669B10716D515F05F
:10464000020113D06FF0020101610121217780691D
:10465000800703D02046FFF7E9FF05E0204600F081
:104660008FF8204600F08EF800202077700719D5CB
:1046700015F0040016D020686FF0040101610221DA
:104680002177806910F4407F04D02046FFF7CEFFE9
:1046900006E000BF204600F073F8204600F072F8F4
:1046A00000202077300717D515F0080014D02068B7
:1046B0006FF00801016104212177C069800703D0F0
:1046C0002046FFF7B3FF05E0204600F059F82046EA
:1046D00000F058F800202077F00619D515F01000EA
:1046E00016D020686FF01001016108212177C069A0
:1046F00010F4407F04D02046FFF798FF06E000BF8B
:10470000204600F03DF8204600F03CF800202077DD
:10471000F00718BF15F0010002D1300609D412E0ED
:1047200020686FF001010161204600F02DF830068D
:1047300009D515F0800006D020686FF08001016176
:104740002046FFF78DFD700609D515F0400006D014
:1047500020686FF040010161204600F01FF8B006AC
:1047600058BF70BD15F0200008D021686FF02002FE
:1047700020460A61BDE87040FFF774BD70BD0000BF
:104780007047000070470000006842F60041C4F224
:104790000101884208BFFFF771B9704770470000F8
:1047A0007047000010B504460068416994F8412044
:1047B000212A58D111F0800155D000BF50E8050FD3
:1047C000216820F0800041E80502EAB1206850E845
:1047D000050F216820F0800041E80502A2B12068A1
:1047E00050E8050F216820F0800041E805025AB129
:1047F000206850E8050F216820F0800041E805029C
:1048000012B12068DAE700BFA06B002818BFFEF7DE
:1048100097FC00BF206850E8030F216820F0C0001B
:1048200041E80302DAB1206850E8030F216820F064
:10483000C00041E8030292B1206850E8030F2168EC
:1048400020F0C00041E803024AB1206850E8030F9D
:10485000216820F0C00041E80302002ADAD12020BC
:1048600084F841002068416994F84220222A40F0EF
:10487000A98011F0400100F0A58000BF50E8050FAD
:10488000216820F0400041E80502EAB1206850E8C4
:10489000050F216820F0400041E80502A2B1206820
:1048A00050E8050F216820F0400041E805025AB1A8
:1048B000206850E8050F216820F0400041E805021B
:1048C00012B12068DAE700BFE06B002818BFFEF7DE
:1048D00037FC00BF206850E8030F216820F4907077
:1048E00041E80302BAB3206850E8030F216820F4BE
:1048F000907041E8030272B3206850E8030F21680A
:1049000020F4907041E803022AB3206850E8030FB6
:10491000216820F4907041E80302002ADAD11AE0FD
:10492000206850E8050F216820F0010041E80502E9
:10493000DAB1206850E8050F216820F0010041E855
:10494000050292B1206850E8050F216820F00100AF
:1049500041E805024AB1206850E8050F216820F0BF
:10496000010041E80502002ADAD1206B012824D198
:10497000206850E8030F216820F0100041E803028E
:10498000DAB1206850E8030F216820F0100041E8F8
:10499000030292B1206850E8030F216820F0100054
:1049A00041E803024AB1206850E8030F216820F073
:1049B000100041E80302002ADAD1202084F84200E6
:1049C00000202063002010BD70470000B0B582B009
:1049D000044600680168C368426901F02F05202D74
:1049E00003F0200506D12DB1204602B0BDE8B0404D
:1049F00003F0E8B95FEA017C1EBF02F0010E03F488
:104A0000907212EB0E0255D1226B012A05D111F0E2
:104A1000100218BF13F0100236D10A0622D513F087
:104A200080021FD094F84110212941D1A168B1F52D
:104A3000805F03D12169002900F07282216A4A1C3B
:104A4000226209784160E18C01390A04E1842FD1A6
:104A5000C16821F08001C160C16841F04001C160BE
:104A600002B0B0BD490623D513F0400120D0C16883
:104A700021F04001C1602021204684F8411002B09D
:104A8000BDE8B04000F068BC0021019101680191CF
:104A90004168019101994169490600F18F80A18D1A
:104AA000E28DE38D002B1CBF891A5FEA01420CD115
:104AB00002B0B0BDCA0718BF13F4807240F038814D
:104AC0004A0700F13B8140E1206850E8030F22686B
:104AD00020F4907042E80303DBB1206850E8030F34
:104AE000226820F4907042E8030393B1206850E8F4
:104AF000030F226820F4907042E803034BB1206852
:104B000050E8030F226820F4907042E80303002B62
:104B1000DAD1206850E8050F226820F0010042E851
:104B20000503DBB1206850E8050F226820F0010082
:104B300042E8050393B1206850E8050F226820F091
:104B4000010042E805034BB1206850E8050F2268D8
:104B500020F0010042E80503002BDAD1202084F880
:104B6000420000202063206850E8030F226820F0F4
:104B7000100042E80303DBB1206850E8030F22680D
:104B800020F0100042E8030393B1206850E8030FBF
:104B9000226820F0100042E803034BB1206850E87F
:104BA000030F226820F0100042E80303002BDAD143
:104BB000022289B220466263B4E000BFE16B0A685A
:104BC000526893B2002B3FF473AFA58DAB42BFF494
:104BD0006FAFE2858969202900F09D8050E8030FBE
:104BE000216820F4807041E80302EAB1206850E8AF
:104BF000030F216820F4807041E80302A2B120680D
:104C000050E8030F216820F4807041E803025AB194
:104C1000206850E8030F216820F4807041E8030207
:104C200012B12068DAE700BF206850E8050F21685C
:104C300020F0010041E80502DAB1206850E8050FD4
:104C4000216820F0010041E8050292B1206850E897
:104C5000050F216820F0010041E805024AB12068F3
:104C600050E8050F216820F0010041E80502002A04
:104C7000DAD1206850E8050F216820F0400041E8B3
:104C80000502DAB1206850E8050F216820F04000E5
:104C900041E8050292B1206850E8050F216820F034
:104CA000400041E805024AB1206850E8050F21683C
:104CB00020F0400041E80502002ADAD1202084F8E3
:104CC000420000202063206850E8030F216820F094
:104CD000100041E80302DAB1206850E8030F2168B0
:104CE00020F0100041E8030292B1206850E8030F61
:104CF000216820F0100041E803024AB1206850E822
:104D0000030F216820F0100041E80302002ADAD1E5
:104D1000E06BFEF715FA02206063A08DE18D401A6A
:104D200081B2204602B0BDE8B040FFF739BD00BFF8
:104D3000626C42F0010262644A0706D5BEF1000FC0
:104D400003D0626C42F0020262648A0706D5BEF1AB
:104D5000000F03D0626C42F004026264BCF1000FE9
:104D600006D555EA0E0203D0626C42F00802626476
:104D7000626C002A3FF49CAE11F0200118BF002D98
:104D800003D0204603F01EF820684169626C01F0F0
:104D9000400102F00802891800F0A28050E8030FD9
:104DA000216820F4907041E80302C2B3206850E803
:104DB000030F216820F4907041E803027AB3206861
:104DC00050E8030F216820F4907041E8030232B3E9
:104DD000206850E8030F216820F4907041E8030236
:104DE000EAB12068DAE700BF206850E8050F2168C3
:104DF00020F0010041E80502DAB1206850E8050F13
:104E0000216820F0010041E8050292B1206850E8D5
:104E1000050F216820F0010041E805024AB1206831
:104E200050E8050F216820F0010041E80502002A42
:104E3000DAD1206B012824D1206850E8030F2168C3
:104E400020F0100041E80302DAB1206850E8030FB7
:104E5000216820F0100041E8030292B1206850E878
:104E6000030F216820F0100041E803024AB12068D6
:104E700050E8030F216820F0100041E80302002AE7
:104E8000DAD1202084F842000020206320684169A4
:104E900049063FD550E8050F216820F0400041E861
:104EA00005022AB3206850E8050F216820F0400071
:104EB00041E80502E2B1206850E8050F216820F0C2
:104EC000400041E805029AB1206850E8050F2168CA
:104ED00020F0400041E8050252B12068DAE700BF47
:104EE0002046FFF771FD0020606402B0B0BD00BF36
:104EF000E06B78B147F6C521C0F600014163FEF7CB
:104F000043F900283FF4D4ADE06B416B02B0BDE83B
:104F1000B0400847204602B0BDE8B040FFF754BD9E
:104F2000216A31F8022B6FF35F22426021628AE529
:104F3000002804BF0120704710B5044690F84100D6
:104F400028B9002084F84000204600F061F82420B1
:104F500084F841002068D4E90212C36823F40053A6
:104F6000C360036923F440531A430261D4E9042364
:104F70001143C268194341F20C639A431143C16063
:104F80004169A26921F44071114343F60002C4F261
:104F900001029042416103D0FEF760FF02E000BFD2
:104FA000FEF770FF6268192148439100B0FBF1F0F1
:104FB00048F21F51C5F2EB11A0FB01235A096FF013
:104FC000630302FB0300322303EB0010A0FB01018B
:104FD000F02303EA5113206803EB0212C1F34311DB
:104FE00011448160016921F490410161416921F01E
:104FF0002A014161C16841F40051C16000202021B3
:10500000606484F8411084F84210606310BD0000B1
:105010002DE9F04385B00446006844F20041C4F233
:105020000001002788420497CDE9027701976FD0ED
:1050300043F60001C4F20101884240F0D68041F2FB
:105040001800C4F20200016840F6000541F48041F6
:1050500001600168C4F2010501F4804100910099EA
:10506000016801AE41F004010160006840F24408AB
:1050700000F00400009000984FF4007001900220AE
:1050800002900320049028463146C4F20208FEF73D
:1050900037FA4FF480600190002728463146CDE969
:1050A0000277FEF72DFA40F6605508F11400C2F2BF
:1050B000000580264FF44059C5E900072846C5E998
:1050C0000276C5E90477C5E90679FEF787F9002875
:1050D00018BFFCF79BFDE5636C6240F6A455C2F275
:1050E00000051020C5E900802846C5E90276C5E91B
:1050F0000477C5E90679FEF771F9002818BFFCF7B7
:1051000085FDA5636C62252005210022252467E02A
:1051100041F21800C4F20200416840F6000541F473
:10512000003141604168C4F2010501F40031009191
:105130000099016801AE41F004010160006840F28D
:10514000440800F004000090009804200190022020
:1051500002900320049028463146C4F20208FEF76C
:10516000CFF90820CDE90107284631460397FEF71D
:10517000C7F940F62C6508F13C00C2F20005102189
:1051800080264FF4805985E883002846C5E90367E7
:10519000C5E90577C5F81C90FEF720F9002818BF6F
:1051A000FCF734FDA5636C6240F6E85508F1280071
:1051B000C2F200050021C5E900012846C5E9021632
:1051C000C5E90411C5E90619FEF708F9002818BF5A
:1051D000FCF71CFDE5636C622620062100222624D4
:1051E000FEF7FEFC2046FEF7EBFC05B0BDE8F083C1
:1051F00070B582B0044690F8420020280AD11346C8
:105200000A4600294FF0010018BF002B06D102B05A
:1052100070BD00BF022002B070BD00BF002522207B
:105220002563A262A385656484F842002168E06B6F
:1052300047F64D4C47F6AD5E47F6D126C0F6000C5A
:10524000C0F6000EC0F600060431C0E90ACEC0E97F
:105250000C65FEF707F90195206801680191416826
:1052600001910199216929B350E8030F216840F4A5
:10527000807041E80302EAB1206850E8030F21681A
:1052800040F4807041E80302A2B1206850E8030FA7
:10529000216840F4807041E803025AB1206850E868
:1052A000030F216840F4807041E8030212B12068C6
:1052B000DAE700BF206850E8050F216840F00100E0
:1052C00041E80502E2B1206850E8050F216840F08E
:1052D000010041E805029AB1206850E8050F2168F5
:1052E00040F0010041E8050252B1206850E8050F86
:1052F000216840F0010041E80502002ADAD100BF30
:10530000206850E8050F216840F0400041E80502A0
:10531000DAB1206850E8050F216840F0400041E80C
:10532000050292B1206850E8050F216840F0400066
:1053300041E805024AB1206850E8050F216840F0B5
:10534000400041E80502002ADAD1002002B070BD19
:10535000704700007047000070470000FEE7000043
:105360002DE9F04383B0044600680D4601680A9FAA
:105370000B9E41F4807199469046016020464FF0A3
:10538000011100223B46009600F0AEF850B12068B3
:105390000068C00544BF4FF400702064032003B0D0
:1053A000BDE8F083206805F0FE0101610221C0F232
:1053B000010120463A46334600F080F920B1012031
:1053C00003B0BDE8F08300BF0020029020683246A1
:1053D000416902918069394602900298204600F0A6
:1053E000DDF958B1206C0428E9D12068016841F446
:1053F00000710160012003B0BDE8F083B9F1010F35
:105400000AD020684FEA1821016120463946324609
:1054100000F0C4F90028E5D120685FFA88F1016145
:10542000002003B0BDE8F08370B50368044653F86C
:10543000140F400711D40E46481C29D086BB00BF6C
:105440001868400527D4FEF779F9236853F8140F3C
:10545000400739D518684007F2D5002070BD00BF5D
:1054600018684007F9D41868400514D41868400734
:10547000F3D4186840050ED418684007EDD41868B6
:10548000400508D4186840074FF0000048BF70BDC1
:1054900018684005E4D56FF480601860042014E0BB
:1054A000154603E053F8140F4007D6D4186840059A
:1054B000F1D4FEF743F9401B2368B042F2D9586992
:1054C0004007EFD4202000E020200021202221638B
:1054D00084F83D2084F83E10226C104320640120A3
:1054E00084F83C1070BD00002DE9F04105460068CD
:1054F0001E46144601F47F0201338FB242D0DDF81C
:105500001880B2F5803F40F0878040693840C01B6A
:10551000B0FA80F04009A04240F0C8804EB924E0C3
:1055200040693840C01BB0FA80F04009A04240F00A
:10553000BD80FEF703F9A0EB08012868B142EFD95E
:1055400041693940C91BB1FA81F14909A142E7D14A
:105550009BE000BF40693840C01BB0FA80F04009B2
:10556000A0424FF0000040F0A680FEF7E7F8286860
:1055700041693940C91BB1FA81F14909A142E9D118
:1055800083E000BFB2F5803F24D100BF41693940BC
:10559000C91BB1FA81F14909A14240F087804169F4
:1055A0003940C91BB1FA81F14909A14240F07E801E
:1055B00041693940C91BB1FA81F14909A14275D14C
:1055C00041693940C91BB1FA81F14909A142DDD0D5
:1055D0006CE000BF81693940C91BB1FA81F149090A
:1055E000A14263D181693940C91BB1FA81F14909EE
:1055F000A1425BD181693940C91BB1FA81F14909E6
:10560000A14253D181693940C91BB1FA81F14909DD
:10561000A142DFD04AE000BF80693840C01BB0FA29
:1056200080F04009A04241D146B923E0806938406A
:10563000C01BB0FA80F04009A0423BD1FEF77EF8D3
:10564000A0EB08012868B142F0D981693940C91B33
:10565000B1FA81F14909A142E8D116E080693840E8
:10566000C01BB0FA80F04009A0424FF0000018BF04
:10567000BDE8F081FEF762F8286881693940C91BEE
:10568000B1FA81F14909A142E8D100202021286323
:1056900085F83D1085F83E00296C41F02001296411
:1056A00085F83C000120BDE8F08100BF0020BDE886
:1056B000F08100BF0020BDE8F0810000F0B581B0AE
:1056C000044600681D4643698FB203EA0701B942E8
:1056D00002D1002001B0F0BD41691646013201F44B
:1056E000806125D0002940D1CEB100BFFEF726F859
:1056F000411B2068B14203D941693940B9424BD1BD
:1057000041693940B942E4D041694905EED52CE000
:1057100041693940B942DCD04169490525D4FEF7D9
:105720000DF8206841693940B942F1D0202024E0C9
:10573000D9B941693940B942CBD04169490514D43E
:1057400041693940B942C4D0416949050DD4416924
:105750003940B942BDD04169490506D44169394053
:10576000B942B6D041694905E3D5016841F40071F9
:1057700001606FF4806141610420002120222163D7
:1057800084F83D2084F83E10226C1043206484F895
:105790003C10012001B0F0BD2020EEE770B5036899
:1057A000044653F8140F000611D40E46481C29D0A5
:1057B00086BB00BF1868400527D4FDF7BFFF2368EC
:1057C00053F8140F000639D518680006F2D50020EA
:1057D00070BD00BF18680006F9D41868400514D4DD
:1057E00018680006F3D4186840050ED4186800063F
:1057F000EDD41868400508D4186800064FF0000082
:1058000048BF70BD18684005E4D56FF4806018602B
:10581000042014E0154603E053F8140F0006D6D414
:1058200018684005F1D4FDF789FF401B2368B0429A
:10583000F2D958690006EFD4202000E02020002192
:105840002022216384F83D2084F83E10226C10430E
:105850002064012084F83C1070BD00002DE9F04761
:1058600092B004464BF6E870C0F600008268D0E9BA
:1058700000101192CDE90F104BF6D070C0F6000069
:105880008268D0E9001043F23336CDE90C100027CE
:1058900044F200010E9204F2FE604FF0F70A022576
:1058A000C3F63376C4F27A47C4F29C610FAB002290
:1058B000CDE90077CDE902660495CDF814A001F09A
:1058C000D3FE002144F2000840F20009C4F2FA417C
:1058D000C4F21C68C4F2482904F5D060CDE9001771
:1058E0000CAB41464A46CDE902660495CDF814A0BA
:1058F00001F0BAFE4BF6F470C0F600008268D0E901
:1059000000100B92CDE909104BF6DC70C0F60000D8
:105910008268D0E900100892CDE9061046F2000135
:1059200004F2BE50C4F26A6109AB0022CDE90077EF
:10593000CDE902660495CDF814A001F095FE04F5BA
:10594000A86006AB41464A46CDE90077CDE902663C
:105950000495CDF814A001F087FE002012B0BDE838
:10596000F087000010B540F6385046F20041C2F210
:105970000000C4F20001022200234FF0807480E88E
:105980000E0000F10C014FF4402C4FF4401E81E852
:10599000085084618383FDF799FA002808BF10BD81
:1059A000BDE81040FCF732B980B582B041F2140076
:1059B000C4F202000168002241F0010101600068A8
:1059C000052100F00100019001980E20FEF708F972
:1059D0000E20FEF7F5F80F2005210022FEF700F952
:1059E0000F20FEF7EDF8102005210022FEF7F8F851
:1059F0001020FEF7E5F8112005210022FEF7F0F84F
:105A0000112002B0BDE88040FEF7DAB8F0B599B0D9
:105A10000020CDE9160016A802F07EFB40F2042714
:105A2000C2F2000738604CF20000C0F6000090E8B7
:105A30007E0080690DF13C0C8CE87E0015900FA86B
:105A4000002102F071FB78604CF21C00C0F60000EF
:105A500090E84E00D0E9045480690DF1200C8CE8E8
:105A60004E000E9008A80021CDE90C5402F05CFB1A
:105A7000B8604CF23800C0F6000090E84E00D0E963
:105A8000045480690DF1040C8CE84E00079001A8C5
:105A90000021CDE9055402F047FBF86019B0F0BDD4
:105AA000F0B585B0002541F218000495C4F202005B
:105AB000016840F6004441F0100101600168C4F241
:105AC000010401F01001009100990168002241F0E9
:105AD0002001016001684FF4405601F0200100915F
